:100E250078756E673A2025336900546F6320646FC7
:090E35003A25356920762F73007F
:100E3E00012400014800022E0000022A0000024494
:050E4E00000001290075
:100E54005389F0438901D2A9D2AF758CFF758A01F9
:030E6400D28C220B
:100B7500EF7004C2B78002D2B7BF01027F02EFC394
:100B850094644006752401C2A922EFD3940050064F
:100B9500E4F524C2A922EF75F00AA485F02CF52D01
:100BA500C3740C952DF528E4952CF527F54C754B5C
:100BB50000752200852823C374E8952DF526740356
:100BC500952CF525C3740C9526F54AE49525F5492C
:0E0BD500F533753200754600854A47D2A922D5
:03000B00020C5193
:100C5100C0E0C0D075D000C007E52470047F0180DA
:100C6100027F008F24E52F452E7002F524E52455DF
:100C71004824FF92B6E54870047F0180027F00E5B9
:100C8100245F24FF92B5E524B40108854C8C8523AB
:100C91008A800685338C85478AD007D0D0D0E03250
:100D1B00E4FDFCC3ED9FEE6480F8EC648098501505
:100D2B00E4FBFA0BBB00010AEB647D4A70F50DBDC9
:050D3B0000010C80DE48
:010D40002290
:0E0E7A00D2827F017E00120D1BC282020D1B70
:100DA200EF139283EFC313139284EF1313543F1381
:0C0DB2009285EF131313541F1392862236
:100DBE008F50C280C281E550C4540FFF120DA21293
:0A0DCE000E7AAF50120DA2020E7A49
:100DD8008F52D280C281E552C4540FFF120DA21265
:0A0DE8000E7AAF52120DA2020E7A2D
:100CCC00E4FF120DA27F147E00120D1B7F03120D88
:100CDC00BE7F02120DBE7F28120DBE7F0C120DBE00
:080CEC007F06120DBE02000E8E
:100D6400EFBD01062480F54F800424C0F54F7F01B8
:100D74007E00120D1BAF4F120DBE7F017E00020DCF
:010D84001B53
:0C000E007F01120DBE7F0A7E00020D1B58
:03000600020DD810
:100D41008B4F8A508951AB4FAA50A95112051DFFF3
:100D5100601012000674012551F551E43550F5502B
:030D610080E42209
:0A0BE300120CA17F057E00120D1B0D
:100BED007D01E4FF120D647552FF75530E7554258A
:100BFD00852E55852F567B007A0079341206157B8C
:100C0D00007A007934120D417D02E4FF120D6475F6
:100C1D0052FF75530E75542FAC44AD45EC1200C305
:100C2D007B9A7A99790578411200211200FC8E5534
:100C3D008F567B007A0079341206157B007A007985
:040C4D0034020D411F
:100CA100D3E52F9400E52E648094804009AF2F1284
:100CB1000B7575480122C3E52E64809480500BE5C5
:0B0CC1002FF404FF120B75E4F548222D
:100A2800E4F54DF54E20905A7F64FE120D1B209080
:100A380034054EE54E7002054DB430F2E54DB475FF
:100A4800ED20901AC3E52F9432E52E6480948050EF
:100A580008052FE52F7002052E120BE380E3E4F55D
:100A68004DF54E80C9C3E52F9432E52E64809480FD
:100A78005008052FE52F7002052E120CA1E4F54D44
:100A8800F54E20915B7F647E00120D1B209134058A
:100A98004EE54E7002054DB430F2E54DB475ED20CB
:100AA800911AD3E52F94CEE52E6480947F4008E513
:100AB8002F152F7002152E120BE380E3E4F54DF588
:100AC8004E80C9D3E52F94CEE52E6480947F4008EC
:100AD800E52F152F7002152E120CA1E4F54DF54ED9
:010AE80022EB
:100E6700D2AFD2AB53890F438910758D9E758B58BE
:030E7700D28E22F6
:070E8800D2AFD2A8D28822EC
:03001B00020E0CC6
:100E0C00C2A8852A44852B45752A00752B00758D43
:090E1C009E758B58D28ED2A832CB
:03000300020DF2F9
:100DF200C0E020B30A052BE52B700C052A8008E51C
:0A0E02002B152B7002152AD0E032E8
:100D8500C2B6C2B5C2B7120CCC120E67120E8812CB
:0D0D95000E54120BED120A28120CA180F56D
:10001E00020172EC5D046005E85904700302016888
:10002E00120133580460F6EC4860F2EC7004FDFEE9
:10003E00FF22C860DB2481C85009C39860025006B5
:10004E0002016F9850CAF582E9294B4A7005AB82BE
:10005E0002015E75F0007C1A7880C3EF9BEE9AED7C
:10006E0099400DC3EF9BFFEE9AFEED99FDE842F02D
:10007E00DC23ACF0D0E0FFD0E0FED0E0FDAB822080
:10008E00E7101BEB60BAEC2CFCEF33FFEE33FEED0A
:10009E0033FD02014AE803F830E705C0F075F000C1
:1000AE00EF2FFFEE33FEED33FD40B830E7C280AAEE
:1000BE0075F020800E75F010800575F0087D007EBD
:1000CE00007F003392D530D503120575EC33401006
:1000DE00EF33FFEE33FEED33FDEC33FCD5F0ED22C6
:0E00EE00E5F0247EA2D513CC92E7CDCEFF2202
:1000FC00EDD2E7CD33EC3392D524814006E4FFFEFC
:10010C00FDFC22FCE4CFCECDCC24E0501174FF805A
:10011C00EDC3CC13CCCD13CDCE13CECF13CF0470F7
:07012C00F030D5DE0205757D
:1005B900E5662452F8E6056622784F30070278523C
:1005C900E475F00112058302051D2000EB7F2ED290
:1005D900008018EF540F2490D43440D4FF30040B1A
:1005E900EF24BFB41A0050032461FFE567600215C8
:1005F90067056AE56A7002056930070D784FE47589
:10060900F001120583EF020563020CF47403D207AB
:100619008003E4C207F5668B4F8A508951E4F56778
:10062900F569F56AE56760077F201205F480F575BD
:1006390068FFC201C200C202C203C205C206C208E3
:100649001205C2FF700D3007057F00120605AF6A5B
:10065900AE6922B4255FC2D5C2041205C2FF24D0F7
:10066900B40A00501A75F00A786730D50508B6FF44
:100679000106C6A426F620D5047002D20380D92427
:10068900CFB41A00EF5004C2E5D2040208F2D20135
:1006990080C6D20080C0D20280BCD2D580BAD20531
:1006A90080B47F201205F42002077401B567004069
:1006B900F11205B9FF1205F402062DD208D20680FF
:1006C900951205B9FB1205B9FA1205B9F94A4B7029
:1006D9000679E97A097BFF20022EE567602A7E0008
:1006E9008E8275830012053660060EEE656870F01D
:1006F900C2D5EBC0E0EAC0E0E9C0E0EE120952D091
:10070900E0F9D0E0FAD0E0FB12051DFF60AAEBC0CA
:10071900E0EAC0E0E9C0E01205F4D0E02401F9D034
:10072900E03400FAD0E0FBE5680460DCD568D980E4
:1007390087D20280A212093560F7E56870010412B8
:10074900017DA968600DE568600914F5681209DC86
:10075900EF60F3EA30E702F404C3995077EAF4252D
:10076900680430E701E404F568800D12093560C1B9
:10077900EA0568256812017DEA7865F630E701E443
:10078900256804D5680420050114120952E4C0E063
:100799001209DC7865E6601320E70714F61205DC18
:1007A900802204F6D0E014C0E07F001205DCE56881
:1007B90060071205D31568800B3005031205D3D0E5
:1007C900E002062DD0E00480C512093560A0E56875
:1007D9000412017D7865EAF6E568200502600104E6
:0507E900240412095276
:1007EE0074FF04C0E01209DC1205DCE56820050286
:1007FE0060031205D3D0E0B568E87F451205E678B0
:10080E0065E67F2B30E7047F2DF404C0E01205F47B
:10081E00D0E075F00A84C0F01205DDD0E01205DDDF
:10082E0002062D791080027908C206C2088008D20D
:10083E00D5790A8004790AC2D5E568047002F56894
:10084E00E4FAFDFEFF1205B9FC7B08200113120528
:10085E00B9FD7B1030000A1205B9FE1205B9FF7BF7
:10086E0020EC3382D592D55013C3E43000069FFF9F
:10087E00E49EFEE42001039DFDE49CFCE4CBF8C263
:10088E0001EC700CCFCECDCCE824F8F870F38017C5
:10089E00C3EF33FFEE33FEED33FDEC33FCEB33FBF6
:1008AE00994002FB0FD8E9EB300105F8D0E0C448BF
:1008BE00B201C0E00AEC4D4E4F78207B0070C2EAC8
:1008CE00B5680040BCC0E0120954D0F0D0E0200161
:1008DE0004C4C0E0C4B201C0F01205DDD0F0D5F002
:1008EE00EB02062D12059306CA53083158069B4C8F
:1008FE0006974208354F083D44083D4906B0430867
:10090E00435507744607D245073E470A0950069FCE
:10091E002D06A32E06C62B06A72306C42009F22AEF
:10092E00065F48000006BEE568B4FF037568061250
:10093E0005B9FC1205B9FD1205B9FE1205B9FF780D
:10094E005E0201AC790AA2D5200314300509B91054
:10095E00020404B9080104A2D520060250010420A5
:10096E0002689202B567005034C0E07F2030031950
:10097E007F30A20272067205500F1209ABC202C27C
:10098E0006C205C2087F30800F300503E9C0E012B1
:10099E0005F4300503D0E0F9D0E0B567CC3005178B
:1009AE007F30B9100C1205F47F583004077F788021
:1009BE0003B908031205F43002057F2D0205F47FFA
:1009CE00202008F87F2B2006F322920280CF7F0092
:1009DE00B407005005245EF8E6FF22286E756C6C95
:1009EE002900D2011205B93001F8C201786730D55D
:1009FE000108F602065F2D504349581205B924032B
:100A0E00B405004001E4900A04931205E5743A120D
:0A0A1E0005E5D203756704020831F4
:10013300E9D2E7C933E833F892D5EDD2E7CD33EC12
:0701430033FC5002B2D5228B
:10014A00EC30E7100FBF000C0EBE00080DBD000416
:10015A000BEB6014A2D5EB13FCED92E7FD2274FFC2
:10016A00FCFDFEFF22E480F8A2D574FF13FC7D801B
:03017A00E480EF2F
:10017D00F920E72824F950037907E4F42402FB1849
:10018D00DBFDE624FB5014E9600DE4F618E604F6F9
:0F019D00B40A08E4F6D9F57401F60A22C2D52295
:1001AC00ED33EC3392D5FA602AB4FF33EDC2E77B22
:1001BC00FF60067A0179D1E4227A0179DA20D5043C
:1001CC007A0179D5224E614E002B494E46002D49BD
:1001DC004E4600E47A08F608DAFC7B00740722E845
:1001EC00C0E0ECC0E0EDC0E0EEC0E0EFC0E0EA75CE
:1001FC00F010A4CAABF075F04DA42BFBE435F0FC69
:10020C00EA2410FAEB34C5FBEC34D9FCEDC2E7FF61
:10021C0075F056A4F42411C5F0F434C58FF0A42A5B
:10022C00E5F03BE43CF620E7141204DDD0E0FFD00F
:10023C00E0FED0E0FDD0E0FC1200218014F40412AA
:10024C0004DDD0E0FFD0E0FED0E0FDD0E0FC1203F6
:10025C00A7D0E0F8E6FAEDD2E7CD33EC332482FBFD
:10026C00E4C3CF33CFCE33CECD33CD33DBF37B07EB
:10027C0075F00A846004F6081B0AE5F0F6088FF0A6
:10028C00740AA4FFACF08EF0740AA42CFEACF050EF
:10029C00010C8DF0740AA42CFDE435F0F608DBDEBD
:0302AC00740722B2
:1002AF00020168E86480F8E933E83360110460F014
:1002BF00ED33EC337009E8FCE9FDEAFEEBFF2204B5
:1002CF0060DED3EB9FEA9EE99DE8C2E78CF0C2F7B0
:1002DF0095F0400CE8CCF8E9CDF9EACEFAEBCFFB7C
:1002EF0012013385D0F05804700320D5B3E80470A1
:1002FF00075002B2D502017292D5EC0460F7E4CC3C
:10030F00C0E0C398F8603B94186008400DD0E0FB44
:10031F0002014AE4FBFAC9FC8028E830E406E4C98C
:10032F00FBE4CAFCE830E305E4C9CACBFCE8540798
:10033F006010F8C3E913F9EA13FAEB13FBEC13FCA3
:10034F00D8F130F52FC3E49CFCEF9BFFEE9AFEED46
:10035F0099FDD0E0FBEF4E4D4C701222DB030201F2
:10036F006FEC2CFCEF33FFEE33FEED33FDED30E79A
:10037F00EB02014AEF2BFFEE3AFEED39FDD0E0FB29
:10038F0050130BBB0003020172ED13FDEE13FEEFD2
:08039F0013FFEC13FC02014AFC
:1003A700EC4D6011E8497017ED33EC3304600DE450
:1003B700FCFFFEFD22E933E8330470F802016812FE
:1003C700013358046009E4CC2481500628500902FF
:1003D700017228400302016FC0E0EB4A7044B98004
:1003E70006D0E0FB02015EEF4E701CBD8008EBFFFC
:1003F700EAFEE9FD80EBE98DF0A4FEE5F00204904A
:10040700E9CDF9EAFEEBFFEF89F0A4FCE5F0CE8930
:10041700F0A42EFFE435F0CD89F0A42DFEE435F0ED
:100427008067EF4E7005BD80D780C3EF8BF0A4AC1B
:10043700F0EE8BF0A42CFCE435F0F8EF8AF0A42C56
:10044700E5F038FCE433CB8DF0A42CFCE5F03BF869
:10045700EE8AF0A42CFCE5F038F8E433CF89F0A459
:100467002CFCE5F038CF3400CE89F0A42FFFE5F05F
:100477003EFEE433C98DF0A42EFEE5F039CD8AF0B7
:10048700A42FFFE5F03EFEE43DFD33D0E0FB50072F
:100497000BBB000F020172EC2CFCEF33FFEE33FEB7
:0604A700ED33FD02014AE5
:1004AD003F8000004120000042C80000447A000057
:1004BD00461C400047C35000497424004B189680D9
:1004CD004CBEBC205A0E1BCA6753C21C749DC5AED0
:1004DD00FB60065407601C232312050BEB54386098
:1004ED00091204F71205061203A7ECF8EDF9EEFA5E
:1004FD00EFCB22EB12050680F1543803241C900437
:10050D00ADFE93FC0EEE93FD0EEE930ECE93FF22F9
:03000000020AE908
:0C0AE900787FE4F6D8FD75816A020B30BE
:10051D00BB010689828A83E0225002E722BBFE02DC
:09052D00E32289828A83E493220F
:10053600BB010CE58229F582E5833AF583E022507A
:1005460006E92582F8E622BBFE06E92582F8E222C4
:0D055600E58229F582E5833AF583E49322DE
:10056300BB010689828A83F0225002F722BBFE0177
:02057300F32271
:0E057500C3E49FFFE49EFEE49DFDE49CFC2297
:10058300FAE6FB0808E6F925F0F618E6CA3AF62279
:10059300D083D082F8E4937012740193700DA3A3F7
:1005A30093F8740193F5828883E47374029368600B
:0605B300EFA3A3A380DF0B
:100CF400EFB40A07740D120CFF740A309811A89906
:100D0400B8130CC2983098FDA899C298B811F6305F
:070D140099FDC299F5992237
:100AF500020D85E493A3F8E493A34003F68001F285
:100B050008DFF48029E493A3F85407240CC8C33301
:100B1500C4540F4420C8834004F456800146F6DFD0
:100B2500E4800B0102040810204080900E3EE47E14
:100B3500019360BCA3FF543F30E509541FFEE493C5
:100B4500A360010ECF54C025E060A840B8E493A38C
:100B5500FAE493A3F8E493A3C8C582C8CAC583CAB7
:100B6500F0A3C8C582C8CAC583CADFE9DEE780BE6F
:010E5300009E
:00000001FF
