:020000040800F2
:10000000002800209D0D0008190D00081F0D000894
:10001000250D00082B0D0008310D00080000000020
:10002000000000000000000000000000370D000884
:10003000430D0008000000004F0D00085B0D000894
:10004000E50D0008E50D0008E50D0008E50D0008C8
:10005000E50D0008E50D0008E50D0008E50D0008B8
:10006000E50D0008E50D0008E50D0008690D000824
:10007000E50D0008E50D0008E50D0008E50D000898
:10008000E50D0008E50D0008E50D0008E50D000888
:10009000E50D0008E50D0008E50D0008E50D000878
:1000A000E50D00087D0D0008E50D0008E50D0008D0
:1000B000E50D0008E50D000800000000E50D000852
:1000C000E50D00080000000000000000E50D00083C
:1000D00000000000E50D0008E50D0008000000002C
:1000E000E50D0008E50D0008E50D00080000000022
:1000F0000000000000000000000000000000000000
:0C01000000000000000000005FF808F1A3
:10010C0010B5054C237833B9044B13B10448AFF345
:10011C0000800123237010BD24000020000000008B
:10012C001035000808B5034B1BB103490348AFF366
:10013C00008008BD000000002800002010350008D9
:10014C00034613F8012B002AFBD1181A013870470B
:10015C0080B500AF00F078F8332000F019F93220A8
:10016C0000F016F9282000F013F9012000F010F926
:10017C000C2000F00DF9062000F00AF900BF80BD3C
:10018C0090B585B000AF78600023FB7309E0FB7B72
:10019C007A6813441B78184600F01AF9FB7B01337C
:1001AC00FB73FC7B7868FFF7CBFF03469C42EED3D6
:1001BC0000BF00BF1437BD4690BD80B582B000AF04
:1001CC0003460A46FB711346BB71BB79002B07D162
:1001DC00FB7963F07F03DBB2184600F0D9F80AE034
:1001EC00FB794033DBB25BB263F07F035BB2DBB213
:1001FC00184600F0CDF800BF0837BD4680BD0000A2
:10020C0080B500AF00210020FFF7D7FF0B48FFF7A8
:10021C00B7FF00210620FFF7D0FF0948FFF7B0FF1A
:10022C0001210020FFF7C9FF01210620FFF7C5FFC0
:10023C000448FFF7A5FF00BF80BD00BF2C350008A8
:10024C00343500084035000880B588B000AF07F1A0
:10025C00100300221A605A609A60DA604A4B9B695C
:10026C00494A43F004039361474B9B6903F0040331
:10027C00FB60FB68444B9B69434A43F00803936162
:10028C00414B9B6903F00803BB60BB683E4B9B6909
:10029C003D4A43F0100393613B4B9B6903F0100301
:1002AC007B607B6801233B6101237B610023BB6185
:1002BC000323FB6107F110031946344801F094FA4B
:1002CC004FF400633B6101237B610023BB6103237B
:1002DC00FB6107F1100319462C4801F085FA4FF425
:1002EC0080633B6101237B610023BB610323FB61C2
:1002FC0007F110031946254801F076FA00224FF455
:10030C008061224801F001FC4FF480533B610123D2
:10031C007B610023BB610323FB6107F110031946CA
:10032C001A4801F061FA4FF400533B6101237B61E1
:10033C000023BB610323FB6107F11003194613482B
:10034C0001F052FA4FF480433B6101237B6100239F
:10035C00BB610323FB6107F1100319460B4801F045
:10036C0043FA4FF400433B6101237B610023BB61E3
:10037C000323FB6107F110031946044801F034FA1A
:10038C0000BF2037BD4680BD00100240000C01406C
:10039C0080B582B000AF0346FB71002201210B48EF
:1003AC0001F0B3FBFB791B09DBB20421184600F00A
:1003BC002FF8FB7903F00F03DBB20421184600F091
:1003CC0027F800BF0837BD4680BD00BF000C0140B8
:1003DC0080B582B000AF0346FB71012201210B48AE
:1003EC0001F093FBFB791B09DBB20421184600F0EA
:1003FC000FF8FB7903F00F03DBB20421184600F071
:10040C0007F800BF0837BD4680BD00BF000C014097
:10041C0080B584B000AF03460A46FB711346BB712E
:10042C000023FB7323E0FA79FB7B42FA03F303F01E
:10043C000103002B0CD1FB7B184A52F82300FB7BE9
:10044C00174A32F813300022194601F05EFB0BE01C
:10045C00FB7B124A52F82300FB7B114A32F8133013
:10046C000122194601F051FBFB7B0133FB73FA7B34
:10047C00BB799A42D7D301224FF40061094801F0AD
:10048C0044FB012000F00CFD00224FF400610548F4
:10049C0001F03BFB00BF1037BD4680BD00000020C3
:1004AC0010000020000C014080B500AF00F096FC5D
:1004BC00FFF74EFE00F058F800F02AFA00F0A4F80E
:1004CC0000F040F900F006FA00F0B0F900F0EAF89C
:1004DC00FFF796FE002000F075FA4FF4FA6000F07A
:1004EC008FFA0C211C4802F0F1F80346002B01D0C6
:1004FC0000F0B2FA2021194801F0F0FA0346002B63
:10050C000ED1142000F0CCFC154B01221A701548AA
:10051C0002F038F80346002B17D000F09DFA14E0D7
:10052C0040210E4801F0DAFA0346002B0DD11420BD
:10053C0000F0B6FC0A4B02221A700A4802F022F8AC
:10054C000346002B01D000F087FA00BF044B1B7848
:10055C00002BFBD1CEE700BF480100200008014072
:10056C00400000200001002080B594B000AF07F1DE
:10057C00280328220021184602F0BCFF07F11403BF
:10058C0000221A605A609A60DA601A613B1D0022E0
:10059C001A605A609A60DA600223BB620123BB6363
:1005AC001023FB6300237B6407F12803184601F03A
:1005BC00DDFA0346002B01D000F04EFA0F237B61CD
:1005CC000023BB610023FB6100233B6200237B62A1
:1005DC0007F114030021184601F048FD0346002BD7
:1005EC0001D000F039FA02237B600023FB603B1D35
:1005FC00184601F0C1FE0346002B01D000F02CFA86
:10060C0000BF5037BD4680BD80B584B000AF3B1DE8
:10061C0000221A605A609A60204B214A1A601F4BC4
:10062C004FF480729A601D4B00221A731B4B0022F0
:10063C001A751A4B4FF46022DA61184B00225A607B
:10064C00164B02221A61154800F04EFC0346002B93
:10065C0001D000F001FA02237B600123BB60002370
:10066C00FB603B1D19460D4800F016FD0346002BA0
:10067C0001D000F0F1F904237B600223BB603B1D29
:10068C001946064800F008FD0346002B01D000F087
:10069C00E3F900BF1037BD4680BD00BF8C000020C1
:1006AC000024014080B586B000AF07F1080300229A
:1006BC001A605A609A60DA603B4600221A605A60EF
:1006CC001E4B1F4A1A601D4B4F225A601B4B0022B7
:1006DC009A601A4B4CF25032DA60184B00221A61B5
:1006EC00164B00225A61154B00229A61134801F0F7
:1006FC00F9FE0346002B01D000F0AEF94FF4805305
:10070C00BB6007F1080319460C4802F0E3FA0346F4
:10071C00002B01D000F0A0F900233B6000237B608C
:10072C003B461946054802F057FE0346002B01D004
:10073C0000F092F900BF1837BD4680BD00010020C3
:10074C00002C014080B58EB000AF07F128030022C9
:10075C001A605A609A60DA6007F1200300221A606E
:10076C005A603B1D00221A605A609A60DA601A6166
:10077C005A619A612C4B4FF080421A602A4B00222E
:10078C005A60294B00229A60274B6322DA60264B71
:10079C0000221A61244B00229A61234801F0A2FE28
:1007AC000346002B01D000F057F94FF48053BB6285
:1007BC0007F1280319461C4802F08CFA0346002B5B
:1007CC0001D000F049F9184801F028FF0346002B2E
:1007DC0001D000F041F900233B6200237B6207F15A
:1007EC0020031946104802F0F7FD0346002B01D0F8
:1007FC0000F032F960237B600023BB600023FB60B8
:10080C0000237B613B1D0C221946074802F0A4F91A
:10081C000346002B01D000F01FF9034800F046FA04
:10082C0000BF3837BD4680BD4801002080B58CB074
:10083C0000AF07F10C0324220021184602F05AFEE7
:10084C003B1D00221A605A60204B214A1A601F4B34
:10085C0000225A601D4B00229A601C4B4FF6FF720F
:10086C00DA601A4B00221A61184B00229A6101239C
:10087C00FB6000233B6101237B610023BB610023F0
:10088C00FB6100233B6201237B620023BB620023DC
:10089C00FB6207F10C0319460C4801F0B3FF034649
:1008AC00002B01D000F0D8F800237B600023BB6044
:1008BC003B1D1946054802F08FFD0346002B01D065
:1008CC0000F0CAF800BF3037BD4680BD44000020A0
:1008DC000004004080B582B000AF0C4B5B690B4A42
:1008EC0043F001035361094B5B6903F001037B6027
:1008FC007B68002200210B2000F0DFFD0B2000F0B4
:10090C00F8FD00BF0837BD4680BD00BF0010024097
:10091C0080B588B000AF07F1100300221A605A604E
:10092C009A60DA60244B9B69234A43F0100393616D
:10093C00214B9B6903F01003FB60FB681E4B9B690A
:10094C001D4A43F0040393611B4B9B6903F00403A2
:10095C00BB60BB68184B9B69174A43F00803936153
:10096C00154B9B6903F008037B607B6801224FF4F5
:10097C000051124801F0C9F84FF400533B610123B8
:10098C007B610023BB610223FB6107F11003194655
:10099C000A4800F029FFE0233B6100237B6101231F
:1009AC00BB6107F110031946054800F01DFF00BF9D
:1009BC002037BD4680BD00BF001002400010014032
:1009CC000008014080B485B000AF0346FB710A4BB0
:1009DC00DB680133FA7902FB03F3084AA2FB032319
:1009EC005B09FB81044B1B68FA891A6400BF14373E
:1009FC00BD4680BC704700BF480100201F85EB51ED
:100A0C0080B584B000AF78600A4BDB68FB6001F006
:100A1C0081FCB860FB6801337A6802FB03F3BA68A7
:100A2C00B2FBF3F34FF08042013B936200BF1037EF
:100A3C00BD4680BD4801002080B582B000AF786013
:100A4C004FF40051034801F078F800BF0837BD4659
:100A5C0080BD00BF0010014080B400AF72B600BF73
:100A6C00FEE7000080B485B000AF154B9B69144ABB
:100A7C0043F001039361124B9B6903F00103BB60CC
:100A8C00BB680F4BDB690E4A43F08053D3610C4BB0
:100A9C00DB6903F080537B607B680A4B5B68FB600F
:100AAC00FB6823F0E063FB60FB6843F00073FB60C2
:100ABC00044AFB68536000BF1437BD4680BC7047C6
:100ACC00001002400000014080B588B000AF786093
:100ADC0007F1100300221A605A609A60DA607B6892
:100AEC001B68284A934249D1274B9B69264A43F4F9
:100AFC0000739361244B9B6903F40073FB60FB68E8
:100B0C00214B9B69204A43F0040393611E4B9B6964
:100B1C0003F00403BB60BB6814233B6103237B61BC
:100B2C0007F110031946194800F05EFE184B194ADC
:100B3C001A60174B00225A60154B00229A60144B16
:100B4C008022DA60124B4FF480721A61104B4FF412
:100B5C0080625A610E4B20229A610D4B0022DA61A1
:100B6C000B4800F0E1FC0346002B01D0FFF774FFAB
:100B7C007B68074A1A62064A7B68536200BF2037BB
:100B8C00BD4680BD00240140001002400008014019
:100B9C00BC0000200800024080B584B000AF786033
:100BAC007B681B68164A934214D1164B9B69154AF5
:100BBC0043F400639361134B9B6903F40063FB6084
:100BCC00FB6800220021192000F077FC192000F0AE
:100BDC0090FC10E07B681B68B3F1804F0BD1094B84
:100BEC00DB69084A43F00103D361064BDB6903F070
:100BFC000103BB60BB6800BF1037BD4680BD00BFA2
:100C0C00002C01400010024080B58AB000AF786023
:100C1C0007F1140300221A605A609A60DA607B684C
:100C2C001B681E4A934235D11D4BDB691C4A43F0AD
:100C3C000203D3611A4BDB6903F002033B613B698E
:100C4C00174B9B69164A43F008039361144B9B693D
:100C5C0003F00803FB60FB6830237B610023BB615E
:100C6C000023FB6107F1140319460E4800F0BCFD8C
:100C7C000D4B5B687B627B6A23F440637B627B6A0F
:100C8C0043F0E0637B627B6A43F400637B62064A59
:100C9C007B6A536000BF2837BD4680BD000400400E
:100CAC0000100240000C01400000014080B588B0EB
:100CBC0000AF786007F1100300221A605A609A6046
:100CCC00DA607B681B68B3F1804F17D10D4B9B69C1
:100CDC000C4A43F0040393610A4B9B6903F0040331
:100CEC00FB60FB6808233B6102237B610223FB61F1
:100CFC0007F110031946044800F076FD00BF2037B9
:100D0C00BD4680BD001002400008014080B400AF19
:100D1C00FEE780B400AFFEE780B400AFFEE780B41E
:100D2C0000AFFEE780B400AFFEE780B400AF00BFB9
:100D3C00BD4680BC704780B400AF00BFBD4680BCD0
:100D4C00704780B400AF00BFBD4680BC704780B513
:100D5C0000AF00F089F800BF80BD000080B500AF87
:100D6C00024800F03BFC00BF80BD00BFBC0000206F
:100D7C0080B500AF024801F0E7FD00BF80BD00BFA9
:100D8C000001002080B400AF00BFBD4680BC70479E
:100D9C000C480D490D4A002302E0D458C4500433CA
:100DAC00C4188C42F9D30A4A0A4C002301E01360A0
:100DBC000432A242FBD3FFF7E5FF02F077FBFFF70B
:100DCC0073FB704700000020240000209C350008B5
:100DDC002400002094010020FEE7000080B500AF45
:100DEC00084B1B68074A43F010031360032000F004
:100DFC0059FB0F2000F008F8FFF734FE00231846CB
:100E0C0080BD00BF0020024080B582B000AF78608A
:100E1C00124B1A68124B1B7819464FF47A73B3FBBA
:100E2C00F1F3B2FBF3F3184600F071FB0346002B11
:100E3C0001D001230EE07B680F2B0AD800227968C1
:100E4C004FF0FF3000F039FB064A7B68136000233B
:100E5C0000E0012318460837BD4680BD180000206D
:100E6C00200000201C00002080B400AF054B1B7834
:100E7C001A46054B1B681344034A136000BFBD465A
:100E8C0080BC7047200000209001002080B400AF8F
:100E9C00024B1B681846BD4680BC70479001002071
:100EAC0080B584B000AF7860FFF7F0FFB8607B6866
:100EBC00FB60FB68B3F1FF3F05D00A4B1B781A4669
:100ECC00FB681344FB6000BFFFF7E0FF0246BB6802
:100EDC00D31AFA689A42F7D800BF00BF1037BD4644
:100EEC0080BD00BF2000002080B586B000AF7860C8
:100EFC000023FB7500233B610023BB600023FB60D8
:100F0C007B68002B01D10123BEE07B689B68002B22
:100F1C007B689B6A002B09D17B680022DA627B68B4
:100F2C00002283F824207868FFF7CEFD786800F063
:100F3C00ABF90346FB757B689B6A03F01003002B2F
:100F4C0040F09980FB7D002B40F095807B689B6A7C
:100F5C0023F4885323F0020343F002027B689A6265
:100F6C007B685A687B68DB691A437B681B7B5B0078
:100F7C001343BA681343BB607B689B68B3F5807FEF
:100F8C0003D07B689B68012B02D14FF4807300E087
:100F9C0000233A6913433B617B681B7D012B19D1FC
:100FAC007B681B7B002B09D17B689B69013B5A0337
:100FBC003B69134343F400633B610BE07B689B6A22
:100FCC0043F020027B689A627B68DB6A43F0010283
:100FDC007B68DA627B681B685B6823F469417B6819
:100FEC001B683A690A435A607B681B689A68284BED
:100FFC0013407A681268B9680B4393607B689B68EE
:10100C00B3F5807F03D07B689B68012B04D17B6890
:10101C001B69013B1B05FB607B681B68DB6A23F4C7
:10102C0070017B681B68FA680A43DA627B681B688C
:10103C009A68184B1340BA689A420BD17B6800220D
:10104C00DA627B689B6A23F0030343F001027B683E
:10105C009A6218E07B689B6A23F0120343F010023B
:10106C007B689A627B68DB6A43F001027B68DA6218
:10107C000123FB7507E07B689B6A43F010027B68D9
:10108C009A620123FB75FB7D18461837BD4680BD5F
:10109C00FDF7E1FFFE0E1FFF80B485B000AF786056
:1010AC0039600023FB730023BB607B6893F824300A
:1010BC00012B01D10223DCE07B68012283F8242080
:1010CC003B685B68062B1CD87B681B68596B3B68BC
:1010DC005A6813469B001344053B1F2202FA03F384
:1010EC00DB4319403B6818683B685A6813469B0001
:1010FC001344053B00FA03F27B681B680A435A63EE
:10110C003CE03B685B680C2B1CD87B681B68196B3C
:10111C003B685A6813469B001344233B1F2202FA78
:10112C0003F3DB4319403B6818683B685A68134665
:10113C009B001344233B00FA03F27B681B680A43B1
:10114C001A631BE07B681B68D96A3B685A681346B4
:10115C009B001344413B1F2202FA03F3DB4319406B
:10116C003B6818683B685A6813469B001344413B24
:10117C0000FA03F27B681B680A43DA623B681B685F
:10118C00092B1CD97B681B68D9683B681A68134605
:10119C005B0013441E3B072202FA03F3DB431940A6
:1011AC003B6898683B681A6813465B0013441E3B07
:1011BC0000FA03F27B681B680A43DA6019E07B686B
:1011CC001B6819693B681A6813465B0013440722B5
:1011DC0002FA03F3DB4319403B6898683B681A68D2
:1011EC0013465B00134400FA03F27B681B680A4346
:1011FC001A613B681B68102B03D03B681B68112BD2
:10120C0032D17B681B681D4A934225D17B681B68D1
:10121C009B6803F40003002B26D17B681B689A683B
:10122C007B681B6842F400029A603B681B68102BB9
:10123C001AD1134B1B68134AA2FB03239A0C1346B7
:10124C009B0013445B00BB6002E0BB68013BBB60CE
:10125C00BB68002BF9D107E07B689B6A43F0200246
:10126C007B689A620123FB737B68002283F824203D
:10127C00FB7B18461437BD4680BC704700240140E8
:10128C001800002083DE1B4380B584B000AF78606B
:10129C000023FB607B681B689B6803F00103012B38
:1012AC002ED17B681B689A687B681B6822F0010250
:1012BC009A60FFF7EBFDF8601BE0FFF7E7FD0246D5
:1012CC00FB68D31A022B14D97B681B689B6803F04C
:1012DC000103012B0DD17B689B6A43F010027B68E4
:1012EC009A627B68DB6A43F001027B68DA62012355
:1012FC0007E07B681B689B6803F00103012BDCD0C3
:10130C00002318461037BD4680BD000080B485B060
:10131C0000AF78607B6803F00703FB600C4BDB6865
:10132C00BB60BA684FF6FF031340BB60FB681A0240
:10133C00BB68134343F0BF6343F40033BB60044A00
:10134C00BB68D36000BF1437BD4680BC704700BF7C
:10135C0000ED00E080B400AF044BDB681B0A03F027
:10136C0007031846BD4680BC704700BF00ED00E087
:10137C0080B483B000AF0346FB7197F90730002BA4
:10138C000BDBFB7903F01F02064997F907305B0969
:10139C00012000FA02F241F8232000BF0C37BD46B1
:1013AC0080BC704700E100E080B483B000AF03461E
:1013BC003960FB7197F90730002B0ADB3B68DAB216
:1013CC000C4997F907301201D2B20B4483F8002371
:1013DC000AE03B68DAB20849FB7903F00F03043BDF
:1013EC001201D2B20B441A7600BF0C37BD4680BC3A
:1013FC00704700BF00E100E000ED00E080B489B070
:10140C0000AFF860B9607A60FB6803F00703FB611A
:10141C00FB69C3F10703042B28BF0423BB61FB69E1
:10142C000433062B02D9FB69033B00E000237B61EC
:10143C004FF0FF32BB6902FA03F3DA43BB681A4080
:10144C007B699A404FF0FF317B6901FA03F3D94372
:10145C007B680B40134318462437BD4680BC70474D
:10146C0080B582B000AF78607B68013BB3F1807FC0
:10147C0001D301230FE00A4A7B68013B53600F2123
:10148C004FF0FF30FFF790FF054B00229A60044BA2
:10149C0007221A60002318460837BD4680BD00BFDE
:1014AC0010E000E080B582B000AF78607868FFF79C
:1014BC002DFF00BF0837BD4680BD80B586B000AF9C
:1014CC000346B9607A60FB7300237B61FFF742FF30
:1014DC0078617A68B9687869FFF790FF024697F9E6
:1014EC000F3011461846FFF75FFF00BF1837BD4697
:1014FC0080BD80B582B000AF0346FB7197F9073011
:10150C001846FFF735FF00BF0837BD4680BD80B5D4
:10151C0082B000AF78607868FFF7A2FF03461846E8
:10152C000837BD4680BD000080B485B000AF786040
:10153C000023FB607B68002B01D1012343E07B6817
:10154C001B681A46224B1344224AA2FB03231B0995
:10155C009A007B681A647B681F4ADA637B680222F4
:10156C0083F821207B681B681B68FB60FB6823F4F5
:10157C007F5323F03003FB607B685A687B689B6861
:10158C001A437B68DB681A437B681B691A437B68C8
:10159C005B691A437B689B691A437B68DB6913435D
:1015AC00FA681343FB607B681B68FA681A607B68F7
:1015BC0000229A637B68012283F821207B68002239
:1015CC0083F82020002318461437BD4680BC704792
:1015DC00F8FFFDBFCDCCCCCC0000024080B584B070
:1015EC0000AF78607B68DB6B1B68FB607B681B68FB
:1015FC001B68BB607B681B6C04229A40FB68134021
:10160C00002B4FD0BB6803F00403002B4AD07B683F
:10161C001B681B6803F02003002B07D17B681B6839
:10162C001A687B681B6822F004021A607B681B68CE
:10163C00664A934229D07B681B68654A934222D044
:10164C007B681B68634A93421AD07B681B68624AAA
:10165C00934212D07B681B68604A93420AD07B6825
:10166C001B685F4A934202D14FF480030EE04FF0A7
:10167C0080630BE04FF4802308E04FF4804305E0D7
:10168C004FF4806302E0402300E00423554A53608A
:10169C007B68DB6A002B00F094807B68DB6A7868DF
:1016AC0098478EE07B681B6C02229A40FB681340C3
:1016BC00002B56D0BB6803F00203002B51D07B6883
:1016CC001B681B6803F02003002B0BD17B681B6885
:1016DC001A687B681B6822F00A021A607B68012278
:1016EC0083F821207B681B68384A934229D07B6899
:1016FC001B68374A934222D07B681B68354A934259
:10170C001AD07B681B68344A934212D07B681B68E2
:10171C00324A93420AD07B681B68314A934202D109
:10172C004FF400130EE04FF000730BE04FF4003356
:10173C0008E04FF4005305E04FF4007302E020235F
:10174C0000E00223274A53607B68002283F82020A4
:10175C007B689B6A002B34D07B689B6A78689847BF
:10176C002FE07B681B6C08229A40FB681340002B0F
:10177C0028D0BB6803F00803002B23D07B681B68C0
:10178C001A687B681B6822F00E021A607B681A6C60
:10179C007B68DB6B012101FA02F25A607B68012243
:1017AC009A637B68012283F821207B68002283F8EE
:1017BC0020207B681B6B002B04D07B681B6B78682C
:1017CC00984700BF00BF1037BD4680BD08000240DF
:1017DC001C0002403000024044000240580002400D
:1017EC006C0002400000024080B48BB000AF786007
:1017FC00396000237B6200233B6248E101227B6A53
:10180C0002FA03F3FB613B681B68FA691340BB6186
:10181C00BA69FB699A4240F037813B685B68A34A1E
:10182C0093425ED0A14A934275D8A14A934258D0B4
:10183C009F4A93426FD89F4A934252D09D4A9342FB
:10184C0069D89D4A93424CD09B4A934263D89B4A99
:10185C00934246D0994A93425DD8122B2AD8122B28
:10186C0059D801A252F823F0EF180008C918000843
:10187C00DB1800081D19000823190008231900089B
:10188C00231900082319000823190008231900083C
:10189C00231900082319000823190008231900082C
:1018AC00231900082319000823190008D11800086F
:1018BC00E5180008824A934213D02CE03B68DB68A1
:1018CC003B6229E03B68DB6804333B6224E03B6805
:1018DC00DB6808333B621FE03B68DB680C333B6220
:1018EC001AE03B689B68002B02D104233B6213E097
:1018FC003B689B68012B05D108233B627B68FA6926
:10190C001A6109E008233B627B68FA695A6103E0BB
:10191C0000233B6200E000BFBB69FF2B01D87B6852
:10192C0001E07B6804337B61BB69FF2B02D87B6AC7
:10193C009B0002E07B6A083B9B003B617B691A6859
:10194C000F213B6901FA03F3DB431A40396A3B6907
:10195C0001FA03F31A437B691A603B685B6803F076
:10196C008053002B00F09080564B9B69554A43F0F6
:10197C0001039361534B9B6903F00103BB60BB688C
:10198C00514A7B6A9B08023352F82330FB607B6A16
:10199C0003F003039B000F2202FA03F3DB43FA6804
:1019AC001340FB607B68494A93420DD07B68484AE0
:1019BC00934207D07B68474A934201D1022304E04B
:1019CC00032302E0012300E000237A6A02F0030201
:1019DC0092009340FA681343FB603B497B6A9B0877
:1019EC000233FA6841F823203B685B6803F48033C8
:1019FC00002B06D0384B1A683749BB6913430B6070
:101A0C0006E0354B1A68BB69DB43334913400B6066
:101A1C003B685B6803F40033002B06D02E4B5A68EE
:101A2C002D49BB6913434B6006E02B4B5A68BB69CD
:101A3C00DB43294913404B603B685B6803F480131C
:101A4C00002B06D0244B9A682349BB6913438B6047
:101A5C0006E0214B9A68BB69DB431F4913408B603E
:101A6C003B685B6803F40013002B06D01A4BDA6852
:101A7C001949BB691343CB6006E0174BDA68BB69A5
:101A8C00DB4315491340CB607B6A01337B623B68B7
:101A9C001A687B6A22FA03F3002B7FF4AFAE00BF07
:101AAC0000BF2C37BD4680BC704700BF0000321011
:101ABC000000311000002210000021100000121054
:101ACC00000011100010024000000140000801400D
:101ADC00000C0140001001400004014080B485B0AE
:101AEC0000AF78600B467B807B689A687B881340DC
:101AFC00002B02D00123FB7301E00023FB73FB7B63
:101B0C0018461437BD4680BC704780B483B000AF14
:101B1C0078600B467B8013467B707B78002B03D060
:101B2C007A887B681A6103E07B881A047B681A61E7
:101B3C0000BF0C37BD4680BC704780B485B000AF89
:101B4C0078600B467B807B68DB68FB607A88FB687F
:101B5C0013401A04FB68D9437B880B401A437B68FB
:101B6C001A6100BF1437BD4680BC704780B586B083
:101B7C0000AF78607B68002B01D101236CE27B689D
:101B8C001B6803F00103002B00F08780924B5B680D
:101B9C0003F00C03042B0CD08F4B5B6803F00C038D
:101BAC00082B12D18C4B5B6803F48033B3F5803F68
:101BBC000BD1894B1B6803F40033002B6CD07B6872
:101BCC005B68002B68D1012346E27B685B68B3F548
:101BDC00803F06D1804B1B687F4A43F480331360EF
:101BEC002EE07B685B68002B0CD17B4B1B687A4A20
:101BFC0023F480331360784B1B68774A23F48023DB
:101C0C0013601DE07B685B68B3F5A02F0CD1724BA1
:101C1C001B68714A43F4802313606F4B1B686E4A38
:101C2C0043F4803313600BE06B4B1B686A4A23F45C
:101C3C0080331360684B1B68674A23F4802313605E
:101C4C007B685B68002B13D0FFF720F9386108E044
:101C5C00FFF71CF902463B69D31A642B01D9032305
:101C6C00FAE15D4B1B6803F40033002BF0D014E059
:101C7C00FFF70CF9386108E0FFF708F902463B69F9
:101C8C00D31A642B01D90323E6E1534B1B6803F4ED
:101C9C000033002BF0D100E000BF7B681B6803F021
:101CAC000203002B63D04C4B5B6803F00C03002B3E
:101CBC000BD0494B5B6803F00C03082B1CD1464B33
:101CCC005B6803F48033002B16D1434B1B6803F085
:101CDC000203002B05D07B681B69012B01D001236B
:101CEC00BAE13D4B1B6823F0F8027B685B69DB00B3
:101CFC00394913430B603AE07B681B69002B20D0F9
:101D0C00364B01221A60FFF7C1F8386108E0FFF783
:101D1C00BDF802463B69D31A022B01D903239BE180
:101D2C002D4B1B6803F00203002BF0D02A4B1B68D1
:101D3C0023F0F8027B685B69DB00274913430B60D7
:101D4C0015E0264B00221A60FFF7A0F8386108E076
:101D5C00FFF79CF802463B69D31A022B01D90323E7
:101D6C007AE11D4B1B6803F00203002BF0D17B685A
:101D7C001B6803F00803002B3AD07B689B69002B8F
:101D8C0019D0174B01221A60FFF780F8386108E070
:101D9C00FFF77CF802463B69D31A022B01D90323C7
:101DAC005AE10D4B5B6A03F00203002BF0D00120CB
:101DBC0000F0C4FA1CE00A4B00221A60FFF766F828
:101DCC0038610FE0FFF762F802463B69D31A022B29
:101DDC0008D9032340E100BF00100240000042423A
:101DEC00800442429E4B5B6A03F00203002BE9D154
:101DFC007B681B6803F00403002B00F0A680002313
:101E0C00FB75974BDB6903F08053002B0DD1944B82
:101E1C00DB69934A43F08053D361914BDB6903F048
:101E2C008053BB60BB680123FB758E4B1B6803F4AE
:101E3C008073002B18D18B4B1B688A4A43F4807338
:101E4C001360FFF723F8386108E0FFF71FF802462C
:101E5C003B69D31A642B01D90323FDE0814B1B682A
:101E6C0003F48073002BF0D07B68DB68012B06D168
:101E7C007B4B1B6A7A4A43F0010313622DE07B68AB
:101E8C00DB68002B0CD1764B1B6A754A23F00103DF
:101E9C001362734B1B6A724A23F0040313621CE037
:101EAC007B68DB68052B0CD16D4B1B6A6C4A43F0CD
:101EBC00040313626A4B1B6A694A43F00103136201
:101ECC000BE0674B1B6A664A23F001031362644BF9
:101EDC001B6A634A23F0040313627B68DB68002BE4
:101EEC0015D0FEF7D3FF38610AE0FEF7CFFF0246AC
:101EFC003B69D31A41F28832934201D90323ABE0F8
:101F0C00574B1B6A03F00203002BEED014E0FEF7D4
:101F1C00BDFF38610AE0FEF7B9FF02463B69D31AF0
:101F2C0041F28832934201D9032395E04C4B1B6A52
:101F3C0003F00203002BEED1FB7D012B05D1484BA6
:101F4C00DB69474A23F08053D3617B68DB69002B44
:101F5C0000F08180424B5B6803F00C03082B61D0CE
:101F6C007B68DB69022B46D13F4B00221A60FEF7DF
:101F7C008DFF386108E0FEF789FF02463B69D31AF2
:101F8C00022B01D9032367E0354B1B6803F0007368
:101F9C00002BF0D17B681B6AB3F5803F08D1304B26
:101FAC005B6823F400327B689B682D4913434B60BC
:101FBC002B4B5B6823F474127B68196A7B685B6A31
:101FCC000B43274913434B60274B01221A60FEF742
:101FDC005DFF386108E0FEF759FF02463B69D31AF2
:101FEC00022B01D9032337E01D4B1B6803F0007350
:101FFC00002BF0D02FE01C4B00221A60FEF746FF9E
:10200C00386108E0FEF742FF02463B69D31A022B07
:10201C0001D9032320E0124B1B6803F00073002B43
:10202C00F0D118E07B68DB69012B01D1012313E0AF
:10203C000B4B5B68FB60FB6803F480327B681B6AAC
:10204C009A4206D1FB6803F470127B685B6A9A4271
:10205C0001D0012300E0002318461837BD4680BD8F
:10206C0000100240007000406000424280B584B015
:10207C0000AF786039607B68002B01D10123D0E080
:10208C006A4B1B6803F007033A689A4210D9674BF6
:10209C001B6823F0070265493B6813430B60634BD5
:1020AC001B6803F007033A689A4201D00123B8E099
:1020BC007B681B6803F00203002B20D07B681B6835
:1020CC0003F00403002B05D0594B5B68584A43F4CA
:1020DC00E06353607B681B6803F00803002B05D09A
:1020EC00534B5B68524A43F460535360504B5B68EC
:1020FC0023F0F0027B689B684D4913434B607B686F
:10210C001B6803F00103002B40D07B685B68012B3C
:10211C0007D1474B1B6803F40033002B15D1012367
:10212C007FE07B685B68022B07D1414B1B6803F097
:10213C000073002B09D1012373E03D4B1B6803F0A6
:10214C000203002B01D101236BE0394B5B6823F0B8
:10215C0003027B685B68364913434B60FEF796FEBF
:10216C00F8600AE0FEF792FE0246FB68D31A41F2D1
:10217C008832934201D9032353E02D4B5B6803F063
:10218C000C027B685B689B009A42EBD1274B1B6867
:10219C0003F007033A689A4210D2244B1B6823F0D1
:1021AC00070222493B6813430B60204B1B6803F06A
:1021BC0007033A689A4201D0012332E07B681B681E
:1021CC0003F00403002B08D0194B5B6823F4E06286
:1021DC007B68DB68164913434B607B681B6803F014
:1021EC000803002B09D0124B5B6823F460527B6808
:1021FC001B69DB000E4913434B6000F021F80246CB
:10220C000B4B5B681B0903F00F030A49CB5C22FAEA
:10221C0003F3094A1360094B1B681846FEF7F4FDDB
:10222C00002318461037BD4680BD00BF0020024079
:10223C00001002407C350008180000201C00002013
:10224C0090B48AB000AF2A4B3C1D0FCB84E80F0032
:10225C0040F201233B800023FB610023BB61002380
:10226C007B6200237B6100233B62224B5B68FB613A
:10227C00FB6903F00C03042B02D0082B03D02DE0D8
:10228C001D4B3B622DE0FB699B0C03F00F0307F128
:10229C002802134413F8243C7B61FB6903F480335C
:1022AC00002B13D0134B5B685B0C03F0010307F19D
:1022BC002802134413F8283CBB617B690E4A02FBCD
:1022CC0003F2BB69B2FBF3F37B6204E07B690B4A5C
:1022DC0002FB03F37B627B6A3B6202E0064B3B62D0
:1022EC0000BF3B6A18462837BD4690BC704700BFFC
:1022FC006C3500080010024000127A0000093D0005
:10230C0080B400AF024B1B681846BD4680BC7047BA
:10231C001800002080B500AFFFF7F2FF0246054B16
:10232C005B681B0A03F007030349CB5C22FA03F337
:10233C00184680BD001002408C35000880B485B072
:10234C0000AF78600A4B1B680A4AA2FB03235B0AA6
:10235C007A6802FB03F3FB6000BFFB685A1EFA604D
:10236C00002BF9D100BF00BF1437BD4680BC7047AD
:10237C0018000020D34D621080B586B000AF786095
:10238C0000233B610023FB607B681B6803F00103A7
:10239C00002B7DD00023FB754F4BDB6903F0805382
:1023AC00002B0DD14C4BDB694B4A43F08053D3616E
:1023BC00494BDB6903F08053BB60BB680123FB75A1
:1023CC00464B1B6803F48073002B18D1434B1B68DE
:1023DC00424A43F480731360FEF758FD386108E0FD
:1023EC00FEF754FD02463B69D31A642B01D9032333
:1023FC006DE03A4B1B6803F48073002BF0D0364B26
:10240C001B6A03F44073FB60FB68002B2ED07B68C7
:10241C005B6803F44073FA689A4227D02E4B1B6A10
:10242C0023F44073FB602E4B01221A602C4B0022CC
:10243C001A60294AFB681362FB6803F00103002B46
:10244C0014D0FEF723FD38610AE0FEF71FFD0246AB
:10245C003B69D31A41F28832934201D9032336E007
:10246C001D4B1B6A03F00203002BEED01A4B1B6AA8
:10247C0023F440727B685B68174913430B62FB7D46
:10248C00012B05D1144BDB69134A23F08053D36124
:10249C007B681B6803F00203002B08D00E4B5B68B3
:1024AC0023F440427B689B680B4913434B607B6869
:1024BC001B6803F01003002B08D0074B5B6823F458
:1024CC0080027B68DB68044913434B600023184689
:1024DC001837BD4680BD00BF0010024000700040A0
:1024EC004004424280B582B000AF78607B68002B1C
:1024FC0001D1012341E07B6893F83D30DBB2002B26
:10250C0006D17B68002283F83C207868FEF744FBF8
:10251C007B68022283F83D207B681A687B68043351
:10252C001946104600F0BEFC7B68012283F8462059
:10253C007B68012283F83E207B68012283F83F20D0
:10254C007B68012283F840207B68012283F84120BC
:10255C007B68012283F842207B68012283F84320A8
:10256C007B68012283F844207B68012283F8452094
:10257C007B68012283F83D20002318460837BD46AE
:10258C0080BD000080B485B000AF78607B6893F8A4
:10259C003D30DBB2012B01D0012335E07B680222F8
:1025AC0083F83D207B681B68DA687B681B6842F007
:1025BC000102DA607B681B68164A934209D07B687B
:1025CC001B68B3F1804F04D07B681B68124A93429E
:1025DC0011D17B681B689B6803F00703FB60FB68E9
:1025EC00062B10D07B681B681A687B681B6842F04E
:1025FC0001021A6007E07B681B681A687B681B681D
:10260C0042F001021A60002318461437BD4680BC04
:10261C00704700BF002C01400004004080B582B020
:10262C0000AF78607B68002B01D1012341E07B680F
:10263C0093F83D30DBB2002B06D17B68002283F887
:10264C003C20786800F039F87B68022283F83D2042
:10265C007B681A687B6804331946104600F022FC2C
:10266C007B68012283F846207B68012283F83E2098
:10267C007B68012283F83F207B68012283F840208D
:10268C007B68012283F841207B68012283F8422079
:10269C007B68012283F843207B68012283F8442065
:1026AC007B68012283F845207B68012283F83D205A
:1026BC00002318460837BD4680BD80B483B000AFF8
:1026CC00786000BF0C37BD4680BC704780B584B0C5
:1026DC0000AF786039603B68002B09D17B6893F8B8
:1026EC003E30DBB2012B14BF01230023DBB222E00E
:1026FC003B68042B09D17B6893F83F30DBB2012B8C
:10270C0014BF01230023DBB215E03B68082B09D171
:10271C007B6893F84030DBB2012B14BF01230023FC
:10272C00DBB208E07B6893F84130DBB2012B14BFBD
:10273C0001230023DBB2002B01D0012359E03B68BD
:10274C00002B04D17B68022283F83E2013E03B6807
:10275C00042B04D17B68022283F83F200BE03B68FA
:10276C00082B04D17B68022283F8402003E07B68AD
:10277C00022283F841207B681B68012239681846C5
:10278C0000F006FE7B681B681C4A934207D17B68ED
:10279C001B685A6C7B681B6842F400425A647B6865
:1027AC001B68164A934209D07B681B68B3F1804FB3
:1027BC0004D07B681B68124A934211D17B681B685A
:1027CC009B6803F00703FB60FB68062B10D07B684B
:1027DC001B681A687B681B6842F001021A6007E0EC
:1027EC007B681B681A687B681B6842F001021A60E0
:1027FC00002318461037BD4680BD00BF002C014099
:10280C000004004080B586B000AF786039607B680A
:10281C00002B01D1012393E07B6893F83D30DBB2B0
:10282C00002B06D17B68002283F83C207868FEF7E9
:10283C00EBF97B68022283F83D207B681B689B6860
:10284C007A68126823F4804323F0070393607B6853
:10285C001A687B6804331946104600F023FB7B682A
:10286C001B689B687B617B681B689B693B617B6811
:10287C001B681B6AFB603B681B687A6913437B61AE
:10288C003B6923F4407323F003033B613B689A6874
:10289C003B689B691B0213433A6913433B613B69D9
:1028AC0023F4406323F00C033B613B6923F4704336
:1028BC0023F0F0033B613B68DA683B68DB691B0281
:1028CC0013433A6913433B613B681B691A013B682C
:1028DC001B6A1B0313433A6913433B61FB6823F0E8
:1028EC002203FB603B685A683B685B691B0113431E
:1028FC00FA681343FB607B681B687A699A607B6893
:10290C001B683A699A617B681B68FA681A627B6873
:10291C00012283F846207B68012283F83E207B68E5
:10292C00012283F83F207B68012283F842207B68D8
:10293C00012283F843207B68012283F83D20002389
:10294C0018461837BD4680BD80B582B000AF7860A0
:10295C007B681B681B6903F00203022B22D17B6886
:10296C001B68DB6803F00203022B1BD17B681B681E
:10297C006FF002021A617B6801221A777B681B6870
:10298C009B6903F00303002B03D0786800F06FFA07
:10299C0005E0786800F062FA786800F071FA7B68FC
:1029AC0000221A777B681B681B6903F00403042B55
:1029BC0022D17B681B68DB6803F00403042B1BD15A
:1029CC007B681B686FF004021A617B6802221A771D
:1029DC007B681B689B6903F44073002B03D07868F9
:1029EC0000F045FA05E0786800F038FA786800F0F5
:1029FC0047FA7B6800221A777B681B681B6903F017
:102A0C000803082B22D17B681B68DB6803F00803E2
:102A1C00082B1BD17B681B686FF008021A617B685E
:102A2C0004221A777B681B68DB6903F00303002B15
:102A3C0003D0786800F01BFA05E0786800F00EFA15
:102A4C00786800F01DFA7B6800221A777B681B6897
:102A5C001B6903F01003102B22D17B681B68DB6809
:102A6C0003F01003102B1BD17B681B686FF0100256
:102A7C001A617B6808221A777B681B68DB6903F490
:102A8C004073002B03D0786800F0F1F905E078680A
:102A9C0000F0E4F9786800F0F3F97B6800221A770B
:102AAC007B681B681B6903F00103012B0ED17B684B
:102ABC001B68DB6803F00103012B07D17B681B68E3
:102ACC006FF001021A617868FDF7B6FF7B681B682E
:102ADC001B6903F08003802B0ED17B681B68DB68BD
:102AEC0003F08003802B07D17B681B686FF080029A
:102AFC001A61786800F0D1FC7B681B681B6903F0D5
:102B0C004003402B0ED17B681B68DB6803F040034D
:102B1C00402B07D17B681B686FF040021A61786804
:102B2C0000F0B7F97B681B681B6903F02003202BAE
:102B3C000ED17B681B68DB6803F02003202B07D1C8
:102B4C007B681B686FF020021A61786800F09CFCAF
:102B5C0000BF0837BD4680BD80B584B000AFF860BB
:102B6C00B9607A60FB6893F83C30012B01D10223E9
:102B7C00ACE0FB68012283F83C207B680C2B00F254
:102B8C009F8001A252F823F0C92B0008CD2C00081D
:102B9C00CD2C0008CD2C0008092C0008CD2C0008E9
:102BAC00CD2C0008CD2C00084B2C0008CD2C000897
:102BBC00CD2C0008CD2C00088B2C0008FB681B6862
:102BCC00B968184600F0C6F9FB681B689A69FB687F
:102BDC001B6842F008029A61FB681B689A69FB68E3
:102BEC001B6822F004029A61FB681B689969BB6838
:102BFC001A69FB681B680A439A6162E0FB681B68F0
:102C0C00B968184600F00CFAFB681B689A69FB68F7
:102C1C001B6842F400629A61FB681B689A69FB6846
:102C2C001B6822F480629A61FB681B689969BB6817
:102C3C001B691A02FB681B680A439A6141E0FB6836
:102C4C001B68B968184600F055FAFB681B68DA690E
:102C5C00FB681B6842F00802DA61FB681B68DA69E2
:102C6C00FB681B6822F00402DA61FB681B68D969F7
:102C7C00BB681A69FB681B680A43DA6121E0FB68D0
:102C8C001B68B968184600F09FFAFB681B68DA6984
:102C9C00FB681B6842F40062DA61FB681B68DA6946
:102CAC00FB681B6822F48062DA61FB681B68D969D7
:102CBC00BB681B691A02FB681B680A43DA6100E0F7
:102CCC0000BFFB68002283F83C2000231846103715
:102CDC00BD4680BD80B584B000AF786039607B683C
:102CEC0093F83C30012B01D10223B3E07B68012225
:102CFC0083F83C207B68022283F83D207B681B68AC
:102D0C009B68FB60FB6823F07703FB60FB6823F494
:102D1C007F43FB607B681B68FA689A603B681B68A2
:102D2C00B3F5005F3ED0B3F5005F00F28780B3F5DA
:102D3C00805F00F08580B3F5805F7FD8702B1AD050
:102D4C00702B7BD8602B50D0602B77D8502B3CD07D
:102D5C00502B73D8402B58D0402B6FD8302B64D0CD
:102D6C00302B6BD8202B60D0202B67D8002B5CD05D
:102D7C00102B5AD062E07B6818683B6899683B68F6
:102D8C005A683B68DB6800F0E4FA7B681B689B6858
:102D9C00FB60FB6843F07703FB607B681B68FA6899
:102DAC009A604EE07B6818683B6899683B685A6883
:102DBC003B68DB6800F0CDFA7B681B689A687B681F
:102DCC001B6842F480429A603BE07B6818683B6861
:102DDC0059683B68DB681A4600F044FA7B681B684C
:102DEC005021184600F09BFA2BE07B6818683B6872
:102DFC0059683B68DB681A4600F062FA7B681B680E
:102E0C006021184600F08BFA1BE07B6818683B6861
:102E1C0059683B68DB681A4600F024FA7B681B682B
:102E2C004021184600F07BFA0BE07B681A683B687F
:102E3C001B681946104600F072FA02E000BF00E071
:102E4C0000BF7B68012283F83D207B68002283F859
:102E5C003C20002318461037BD4680BD80B483B09B
:102E6C0000AF786000BF0C37BD4680BC704780B4A3
:102E7C0083B000AF786000BF0C37BD4680BC704794
:102E8C0080B483B000AF786000BF0C37BD4680BC07
:102E9C00704780B483B000AF786000BF0C37BD467C
:102EAC0080BC704780B485B000AF786039607B68B7
:102EBC001B68FB607B68254A934207D07B68B3F1A3
:102ECC00804F03D07B68224A934208D1FB6823F0E1
:102EDC007003FB603B685B68FA681343FB607B68BC
:102EEC001A4A934207D07B68B3F1804F03D07B68BA
:102EFC00174A934208D1FB6823F44073FB603B688C
:102F0C00DB68FA681343FB60FB6823F080023B68C4
:102F1C005B691343FB607B68FA681A603B689A68CC
:102F2C007B68DA623B681A687B689A627B68074A3E
:102F3C00934203D13B681A697B681A637B68012250
:102F4C005A6100BF1437BD4680BC7047002C01404D
:102F5C000004004080B487B000AF786039607B68B3
:102F6C001B6A23F001027B681A627B681B6A7B6117
:102F7C007B685B683B617B689B69FB60FB6823F04B
:102F8C007003FB60FB6823F00303FB603B681B686A
:102F9C00FA681343FB607B6923F002037B613B6897
:102FAC009B687A6913437B617B681C4A93420CD102
:102FBC007B6923F008037B613B68DB687A69134308
:102FCC007B617B6923F004037B617B68134A93422A
:102FDC0011D13B6923F480733B613B6923F400738B
:102FEC003B613B685B693A6913433B613B689B6996
:102FFC003A6913433B617B683A695A607B68FA68AB
:10300C009A613B685A687B685A637B687A691A6272
:10301C0000BF1C37BD4680BC704700BF002C014070
:10302C0080B487B000AF786039607B681B6A23F08E
:10303C0010027B681A627B681B6A7B617B685B6829
:10304C003B617B689B69FB60FB6823F4E043FB609E
:10305C00FB6823F44073FB603B681B681B02FA6837
:10306C001343FB607B6923F020037B613B689B6807
:10307C001B017A6913437B617B681D4A93420DD116
:10308C007B6923F080037B613B68DB681B017A69F9
:10309C0013437B617B6923F040037B617B68144A9B
:1030AC00934213D13B6923F480633B613B6923F466
:1030BC0000633B613B685B699B003A6913433B616E
:1030CC003B689B699B003A6913433B617B683A6997
:1030DC005A607B68FA689A613B685A687B689A63A5
:1030EC007B687A691A6200BF1C37BD4680BC70478A
:1030FC00002C014080B487B000AF786039607B68E9
:10310C001B6A23F480727B681A627B681B6A7B6182
:10311C007B685B683B617B68DB69FB60FB6823F069
:10312C007003FB60FB6823F00303FB603B681B68C8
:10313C00FA681343FB607B6923F400737B613B6883
:10314C009B681B027A6913437B617B681D4A93421F
:10315C000DD17B6923F400637B613B68DB681B0248
:10316C007A6913437B617B6923F480637B617B68A1
:10317C00144A934213D13B6923F480533B613B695E
:10318C0023F400533B613B685B691B013A691343B1
:10319C003B613B689B691B013A6913433B617B684C
:1031AC003A695A607B68FA68DA613B685A687B68EE
:1031BC00DA637B687A691A6200BF1C37BD4680BC33
:1031CC00704700BF002C014080B487B000AF78601E
:1031DC0039607B681B6A23F480527B681A627B68B7
:1031EC001B6A3B617B685B687B617B68DB69FB60AE
:1031FC00FB6823F4E043FB60FB6823F44073FB6043
:10320C003B681B681B02FA681343FB603B6923F4A1
:10321C0000533B613B689B681B033A6913433B615A
:10322C007B680F4A934209D17B6923F480437B610D
:10323C003B685B699B017A6913437B617B687A69A4
:10324C005A607B68FA68DA613B685A687B681A6472
:10325C007B683A691A6200BF1C37BD4680BC704758
:10326C00002C014080B487B000AFF860B9607A6080
:10327C00FB681B6A7B61FB681B6A23F00102FB681D
:10328C001A62FB689B693B613B6923F0F0033B616D
:10329C007B681B013A6913433B617B6923F00A038A
:1032AC007B617A69BB6813437B61FB683A699A61FD
:1032BC00FB687A691A6200BF1C37BD4680BC704738
:1032CC0080B487B000AFF860B9607A60FB681B6AA5
:1032DC0023F01002FB681A62FB689B697B61FB6838
:1032EC001B6A3B617B6923F470437B617B681B0326
:1032FC007A6913437B613B6923F0A0033B61BB6894
:10330C001B013A6913433B61FB687A699A61FB685C
:10331C003A691A6200BF1C37BD4680BC704780B446
:10332C0085B000AF786039607B689B68FB60FB6898
:10333C0023F07003FB603A68FB68134343F0070308
:10334C00FB607B68FA689A6000BF1437BD4680BC8E
:10335C00704780B487B000AFF860B9607A603B60AA
:10336C00FB689B687B617B6923F47F437B613B68D3
:10337C001A027B681A43BB6813437A6913437B6157
:10338C00FB687A699A6000BF1C37BD4680BC7047E9
:10339C0080B487B000AFF860B9607A60BB6803F0A6
:1033AC001F03012202FA03F37B61FB681A6A7B6933
:1033BC00DB431A40FB681A62FB681A6ABB6803F0AD
:1033CC001F03796801FA03F31A43FB681A6200BF02
:1033DC001C37BD4680BC704780B485B000AF7860A8
:1033EC0039607B6893F83C30012B01D1022341E01A
:1033FC007B68012283F83C207B68022283F83D2005
:10340C007B681B685B68FB607B681B689B68BB60A8
:10341C00FB6823F07003FB603B681B68FA6813437E
:10342C00FB607B681B68FA685A607B681B68144AEF
:10343C00934209D07B681B68B3F1804F04D07B6842
:10344C001B68104A93420CD1BB6823F08003BB600D
:10345C003B685B68BA681343BB607B681B68BA68DF
:10346C009A607B68012283F83D207B68002283F8F8
:10347C003C20002318461437BD4680BC704700BF63
:10348C00002C01400004004080B483B000AF786091
:10349C0000BF0C37BD4680BC704780B483B000AF12
:1034AC00786000BF0C37BD4680BC704770B50026F5
:1034BC000C4D0D4C641BA410A64209D100F022F84F
:1034CC0000260A4D0A4C641BA410A64205D170BDFF
:1034DC0055F8043B98470136EEE755F8043B9847FE
:1034EC000136F2E79435000894350008943500084D
:1034FC009835000803460244934200D1704703F804
:10350C00011BF9E7F8B500BFF8BC08BC9E46704734
:0C351C00F8B500BFF8BC08BC9E46704724
:10352800256400004D4F44453A000000312E2042EA
:103538007954656D70000000322E204D616E756102
:103548006C00000054656D70203A00002020202097
:10355800202000004300000053706565643A0000B5
:1035680072706D0002030405060708090A0B0C0DAA
:103578000E0F1010000000000000000001020304FC
:0C3588000607080900000000010203040F
:0435940031010008F9
:043598000D01000819
:10359C00000C0140000C0140000C0140000C0140EB
:1035AC0000100020004000800024F40010000000F7
:0435BC00010000000A
:0400000508000D9D45
:00000001FF
