:020000040800F2
:1000000000280020BD150008F5140008FB140008A6
:1000100001150008071500080D1500080000000074
:1000200000000000000000000000000013150008A0
:100030001F150008000000002B15000837150008E8
:100040000516000805160008051600080516000824
:100050000516000805160008051600080516000814
:100060000516000805160008051600080516000804
:1000700005160008051600080516000805160008F4
:1000800005160008051600080516000805160008E4
:1000900005160008051600080516000805160008D4
:1000A00005160008051600080516000805160008C4
:1000B00005160008051600080000000005160008D7
:1000C00005160008000000000000000005160008EA
:1000D00000000000051600080516000800000000DA
:1000E00005160008051600080516000800000000A7
:1000F0000000000000000000000000000000000000
:0C01000000000000000000005FF808F1A3
:1001100010B5054C237833B9044B13B10448AFF341
:1001200000800123237010BD880000200000000023
:10013000C843000808B5034B1BB103490348AFF39C
:10014000008008BD000000008C000020C8430008AB
:10015000034613F8012B002AFBD1181A0138704707
:1001600070B54FF0FF0C4CF4E06C1CEA11541DBF4D
:100170001CEA135594EA0C0F95EA0C0F00F0DEF818
:100180002C4481EA030621EA4C5123EA4C5350EAFD
:10019000013518BF52EA033541F4801143F480134E
:1001A00038D0A0FB02CE4FF00005E1FB02E506F0DF
:1001B0000042E0FB03E54FF00006E1FB03569CF034
:1001C000000F18BF4EF0010EA4F1FF04B6F5007F3A
:1001D00064F5407404D25FEA4E0E6D4146EB0606AC
:1001E00042EAC62141EA55514FEAC52040EA5E5035
:1001F0004FEACE2EB4F1FD0C88BFBCF5E06F1ED8DF
:10020000BEF1004F08BF5FEA500E50F1000041EB15
:10021000045170BD06F0004646EA010140EA0200C2
:1002200081EA0301B4EB5C04C2BFD4EB0C0541EAE4
:10023000045170BD41F480114FF0000E013C00F3F9
:10024000AB8014F1360FDEBF002001F0004170BD1D
:10025000C4F10004203C35DA0C341BDC04F1140436
:10026000C4F1200500FA05F320FA04F001FA05F2C2
:1002700040EA020001F0004221F0004110EBD3708F
:1002800021FA04F642EB06015EEA430E08BF20EABB
:10029000D37070BDC4F10C04C4F1200500FA04F35E
:1002A00020FA05F001FA04F240EA020001F00041F0
:1002B00010EBD37041F100015EEA430E08BF20EA63
:1002C000D37070BDC4F1200500FA05F24EEA020EAB
:1002D00020FA04F301FA05F243EA020321FA04F0DA
:1002E00001F0004121FA04F220EA020000EBD37091
:1002F0005EEA430E08BF20EAD37070BD94F0000F91
:100300000FD101F00046400041EB010111F4801FC4
:1003100008BF013CF7D041EA060195F0000F18BF75
:10032000704703F00046520043EB030313F4801FB1
:1003300008BF013DF7D043EA0603704794EA0C0F6B
:100340000CEA135518BF95EA0C0F0CD050EA410681
:1003500018BF52EA4306D1D181EA030101F00041FE
:100360004FF0000070BD50EA410606BF1046194626
:1003700052EA430619D094EA0C0F02D150EA013632
:1003800013D195EA0C0F05D152EA03361CBF104673
:1003900019460AD181EA030101F0004141F0FE4112
:1003A00041F470014FF0000070BD41F0FE4141F496
:1003B000780170BD81F0004102E000BF83F000438E
:1003C00030B54FEA41044FEA430594EA050F08BFF0
:1003D00090EA020F1FBF54EA000C55EA020C7FEAB4
:1003E000645C7FEA655C00F0E2804FEA5454D4EB31
:1003F0005555B8BF6D420CDD2C4480EA020281EAFB
:10040000030382EA000083EA010180EA020281EA32
:100410000303362D88BF30BD11F0004F4FEA013184
:100420004FF4801C4CEA113102D0404261EB410193
:1004300013F0004F4FEA03334CEA133302D0524219
:1004400063EB430394EA050F00F0A780A4F10104D5
:10045000D5F1200E0DDB02FA0EFC22FA05F280180F
:1004600041F1000103FA0EF2801843FA05F35941F5
:100470000EE0A5F120050EF1200E012A03FA0EFC74
:1004800028BF4CF0020C43FA05F3C01851EBE3719E
:1004900001F0004507D54FF0000EDCF1000C7EEBBB
:1004A00000006EEB0101B1F5801F1BD3B1F5001FF9
:1004B0000CD349085FEA30004FEA3C0C04F1010418
:1004C0004FEA445212F5800F80F09A80BCF1004F41
:1004D00008BF5FEA500C50F1000041EB045141EAC3
:1004E000050130BD5FEA4C0C404141EB0101013C8C
:1004F00028BFB1F5801FE9D291F0000F04BF01467B
:100500000020B1FA81F308BF2033A3F10B03B3F14C
:1005100020020CDA0C3208DD02F1140CC2F10C02DC
:1005200001FA0CF021FA02F10CE002F11402D8BF3A
:10053000C2F1200C01FA02F120FA0CFCDCBF41EA06
:100540000C019040E41AA2BF01EB0451294330BDD5
:100550006FEA04041F3C1CDA0C340EDC04F11404B2
:10056000C4F1200220FA04F001FA02F340EA030089
:1005700021FA04F345EA030130BDC4F10C04C4F1CF
:10058000200220FA02F001FA04F340EA03002946AF
:1005900030BD21FA04F0294630BD94F0000F83F4F9
:1005A000801306BF81F480110134013D4EE77FEADC
:1005B000645C18BF7FEA655C29D094EA050F08BF28
:1005C00090EA020F05D054EA000C04BF1946104609
:1005D00030BD91EA030F1EBF0021002030BD5FEA4D
:1005E000545C05D14000494128BF41F0004130BD75
:1005F00014F580043CBF01F5801130BD01F00045C9
:1006000045F0FE4141F470014FF0000030BD7FEA3B
:10061000645C1ABF194610467FEA655C1CBF0B4636
:10062000024650EA013406BF52EA033591EA030F4D
:1006300041F4002130BD00BF90F0000F04BF002145
:10064000704730B54FF4806404F132044FF0000578
:100650004FF0000150E700BF90F0000F04BF0021F1
:10066000704730B54FF4806404F1320410F0004557
:1006700048BF40424FF000013EE700BF42004FEA52
:10068000E2014FEA31014FEA02701FBF12F07F43CF
:1006900093F07F4F81F06051704732F07F4208BF86
:1006A000704793F07F4F04BF41F40021704730B58D
:1006B0004FF4607401F0004521F000411CE700BFD9
:1006C00050EA010208BF704730B54FF000050AE05C
:1006D00050EA010208BF704730B511F0004502D55D
:1006E000404261EB41014FF4806404F132045FEA5F
:1006F000915C3FF4D8AE4FF003025FEADC0C18BF08
:1007000003325FEADC0C18BF033202EBDC02C2F1F9
:10071000200300FA03FC20FA02F001FA03FE40EA8B
:100720000E0021FA02F11444BDE600BF4A0011D2C6
:1007300012F5001211D20DD56FF47873B3EB62523B
:100740000ED44FEAC12343F0004343EA505323FA47
:1007500002F070474FF00000704750EA013002D1BC
:100760004FF0FF3070474FF00000704780F00040BE
:1007700002E000BF81F0004142001FBF5FEA410379
:1007800092EA030F7FEA226C7FEA236C6AD04FEA79
:100790001262D2EB1363C1BFD218414048404140BE
:1007A000B8BF5B42192B88BF704710F0004F40F470
:1007B000000020F07F4018BF404211F0004F41F48C
:1007C000000121F07F4118BF494292EA030F3FD058
:1007D000A2F1010241FA03FC10EB0C00C3F120036B
:1007E00001FA03F100F0004302D5494260EB4000FA
:1007F000B0F5000F13D3B0F1807F06D340084FEA65
:10080000310102F10102FE2A51D2B1F1004F40EB59
:10081000C25008BF20F0010040EA030070474900C1
:1008200040EB0000013A28BFB0F5000FEDD2B0FA5E
:1008300080FCACF1080CB2EB0C0200FA0CF0AABF81
:1008400000EBC25052421843BCBFD040184370471F
:1008500092F0000F81F4000106BF80F40000013225
:10086000013BB5E74FEA41037FEA226C18BF7FEAFC
:10087000236C21D092EA030F04D092F0000F08BF3E
:100880000846704790EA010F1CBF0020704712F025
:100890007F4F04D1400028BF40F00040704712F164
:1008A00000723CBF00F50000704700F0004343F0C9
:1008B000FE4040F4000070477FEA226216BF0846FF
:1008C0007FEA23630146420206BF5FEA412390EAC2
:1008D000010F40F4800070474FF0000304E000BFB8
:1008E00010F0004348BF40425FEA000C08BF704769
:1008F00043F0964301464FF000001CE050EA01022D
:1009000008BF70474FF000030AE000BF50EA010241
:1009100008BF704711F0004302D5404261EB41012E
:100920005FEA010C02BF84460146002043F0B64353
:1009300008BFA3F18053A3F50003BCFA8CF2083A78
:10094000A3EBC25310DB01FA02FC634400FA02FC81
:10095000C2F12002BCF1004F20FA02F243EB020088
:1009600008BF20F00100704702F1200201FA02FCEA
:10097000C2F1200250EA4C0021FA02F243EB0200DD
:1009800008BF20EADC7070474FF0FF0C1CEAD05221
:100990001EBF1CEAD15392EA0C0F93EA0C0F6FD0E2
:1009A0001A4480EA010C400218BF5FEA41211ED0C0
:1009B0004FF0006343EA501043EA5111A0FB0131AC
:1009C0000CF00040B1F5000F3EBF490041EAD37181
:1009D0005B0040EA010062F17F02FD2A1DD8B3F1FD
:1009E000004F40EBC25008BF20F00100704790F06C
:1009F000000F0CF0004C08BF49024CEA502040EABE
:100A000051207F3AC2BFD2F1FF0340EAC250704783
:100A100040F400004FF00003013A5DDC12F1190FC1
:100A2000DCBF00F000407047C2F10002410021FA33
:100A300002F1C2F1200200FA02FC5FEA310040F14B
:100A4000000053EA4C0308BF20EADC70704792F0C4
:100A5000000F00F0004C02BF400010F4000F013AFC
:100A6000F9D040EA0C0093F0000F01F0004C02BFF7
:100A7000490011F4000F013BF9D041EA0C018FE766
:100A80000CEAD15392EA0C0F18BF93EA0C0F0AD06C
:100A900030F0004C18BF31F0004CD8D180EA010092
:100AA00000F00040704790F0000F17BF90F0004F2B
:100AB000084691F0000F91F0004F14D092EA0C0F0D
:100AC00001D142020FD193EA0C0F03D14B0218BFA0
:100AD000084608D180EA010000F0004040F0FE40E6
:100AE00040F40000704740F0FE4040F44000704782
:100AF0004FF0FF0C1CEAD0521EBF1CEAD15392EA01
:100B00000C0F93EA0C0F69D0A2EB030280EA010CF0
:100B100049024FEA402037D04FF0805343EA111189
:100B200043EA10130CF000408B4238BF5B0042F1E7
:100B30007D024FF4000C8B4224BF5B1A40EA0C008C
:100B4000B3EB510F24BFA3EB510340EA5C00B3EBBE
:100B5000910F24BFA3EB910340EA9C00B3EBD10FAC
:100B600024BFA3EBD10340EADC001B0118BF5FEAFE
:100B70001C1CE0D1FD2A3FF650AF8B4240EBC25027
:100B800008BF20F0010070470CF0004C4CEA5020E8
:100B90007F32C2BFD2F1FF0340EAC250704740F437
:100BA00000004FF00003013A37E792F0000F00F029
:100BB000004C02BF400010F4000F013AF9D040EAA7
:100BC0000C0093F0000F01F0004C02BF490011F43B
:100BD000000F013BF9D041EA0C0195E70CEAD15333
:100BE00092EA0C0F08D142027FF47DAF93EA0C0F1A
:100BF0007FF470AF084676E793EA0C0F04D14B02FE
:100C00003FF44CAF08466EE730F0004C18BF31F0AF
:100C1000004CCAD130F000427FF45CAF31F00043A9
:100C20007FF43CAF5FE700BF80B500AF00F0BAF8DB
:100C3000332000F05BF9322000F058F9282000F052
:100C400055F9012000F052F90C2000F04FF9062070
:100C500000F04CF900BF80BD80B586B000AF786071
:100C600007F10C037A680649184602F073FF07F192
:100C70000C03184600F006F800BF1837BD4680BDCB
:100C8000E043000890B585B000AF78600023FB73A7
:100C900009E0FB7B7A6813441B78184600F046F99C
:100CA000FB7B0133FB73FC7B7868FFF751FA03464B
:100CB0009C42EED300BF00BF1437BD4690BD80B547
:100CC00082B000AF03460A46FB711346BB71BB7985
:100CD000002B07D1FB7963F07F03DBB2184600F0ED
:100CE00005F90AE0FB794033DBB25BB263F07F03C6
:100CF0005BB2DBB2184600F0F9F800BF0837BD461A
:100D000080BD000080B582B000AF03460A46FB718B
:100D10001346BB8000210020FFF7D1FF1C48FFF7DE
:100D2000B1FF00210620FFF7CAFF1A48FFF7AAFF0C
:100D300000210620FFF7C3FFFB791846FFF78CFF61
:100D400000210C20FFF7BBFF1348FFF79BFF012199
:100D50000020FFF7B4FF1148FFF794FF01210620A0
:100D6000FFF7ADFF0B48FFF78DFF01210620FFF7CE
:100D7000A6FFBB881846FFF76FFF01210C20FFF785
:100D80009EFF0748FFF77EFF00BF0837BD4680BDC6
:100D9000E4430008EC430008F4430008F84300086B
:100DA0000044000880B588B000AF07F110030022AE
:100DB0001A605A609A60DA604A4B9B69494A43F06C
:100DC00004039361474B9B6903F00403FB60FB68DA
:100DD000444B9B69434A43F008039361414B9B6931
:100DE00003F00803BB60BB683E4B9B693D4A43F080
:100DF000100393613B4B9B6903F010037B607B689E
:100E000001233B6101237B610023BB610323FB6161
:100E100007F110031946344801F08CF94FF40063D0
:100E20003B6101237B610023BB610323FB6107F16D
:100E3000100319462C4801F07DF94FF480633B61A3
:100E400001237B610023BB610323FB6107F11003D6
:100E50001946254801F06EF900224FF480612248BE
:100E600001F0E2FA4FF480533B6101237B610023E0
:100E7000BB610323FB6107F1100319461A4801F017
:100E800059F94FF400533B6101237B610023BB619F
:100E90000323FB6107F110031946134801F04AF9D7
:100EA0004FF480433B6101237B610023BB6103233B
:100EB000FB6107F1100319460B4801F03BF94FF4B1
:100EC00000433B6101237B610023BB610323FB6182
:100ED00007F110031946044801F02CF900BF203730
:100EE000BD4680BD00100240000C014080B582B0BC
:100EF00000AF0346FB71002201210B4801F094FA78
:100F0000FB791B09DBB20421184600F02FF8FB79AE
:100F100003F00F03DBB20421184600F027F800BFEE
:100F20000837BD4680BD00BF000C014080B582B0CF
:100F300000AF0346FB71012201210B4801F074FA56
:100F4000FB791B09DBB20421184600F00FF8FB798E
:100F500003F00F03DBB20421184600F007F800BFCE
:100F60000837BD4680BD00BF000C014080B584B08D
:100F700000AF03460A46FB711346BB710023FB73A7
:100F800023E0FA79FB7B42FA03F303F00103002B21
:100F90000CD1FB7B184A52F82300FB7B174A32F82E
:100FA00013300022194601F03FFA0BE0FB7B124A96
:100FB00052F82300FB7B114A32F813300122194604
:100FC00001F032FAFB7B0133FB73FA7BBB799A4267
:100FD000D7D301224FF40061094801F025FA01201E
:100FE00000F074FB00224FF40061054801F01CFA88
:100FF00000BF1037BD4680BD00000020100000205B
:10100000000C01400000000080B582B000AF00F08D
:10101000FBFAFFF709FE00F061F800F061F900F05B
:10102000ADF800F0E9F84FF47A710A20FFF76AFE94
:101030000A2000F06BF94FF4FA6000F085F9042102
:10104000234802F045F80346002B01D000F092F946
:10105000204800F037FC4FF0FF311E4800F0E0FC64
:101060001C4800F0E3FD03461846FFF735FC034635
:101070004FF08B411846FFF73BFD03461846FFF73C
:10108000FDFA11A3D3E90023FFF76AF802460B46E5
:10109000104619464FF000020F4BFFF761F8024669
:1010A0000B4610461946FFF741FB0346FB71FB79DF
:1010B00040F69D011846FFF725FE4FF47A7000F0C8
:1010C00005FBC5E7AFF300806666666666660A40A4
:1010D000E0000020B00000200000594080B594B02E
:1010E00000AF07F1280328220021184602F02AFD4C
:1010F00007F1140300221A605A609A60DA601A61DC
:101100003B1D00221A605A609A60DA600223BB62BB
:101110000123BB631023FB6300237B6407F12803D7
:10112000184601F099F90346002B01D000F022F98E
:101130000F237B610023BB610023FB6100233B6223
:1011400000237B6207F114030021184601F004FC20
:101150000346002B01D000F00DF902237B60002331
:10116000FB603B1D184601F091FD0346002B01D0AA
:1011700000F000F900BF5037BD4680BD80B584B097
:1011800000AF3B1D00221A605A609A60184B194A42
:101190001A60174B00229A60154B00221A73144BE9
:1011A00000221A75124B4FF46022DA61104B0022B4
:1011B0005A600F4B01221A610D4800F0ABFA03464A
:1011C000002B01D000F0D6F802237B600123BB6026
:1011D0000023FB603B1D1946054800F033FD034624
:1011E000002B01D000F0C6F800BF1037BD4680BD0F
:1011F000B00000200024014080B58EB000AF07F1A0
:10120000280300221A605A609A60DA6007F120030E
:1012100000221A605A603B1D00221A605A609A60D0
:10122000DA601A615A619A612C4B4FF080421A6061
:101230002A4B4F225A60294B00229A60274B632287
:10124000DA60264B00221A61244B00229A6123485F
:1012500001F096FE0346002B01D000F08BF84FF40E
:101260008053BB6207F1280319461C4802F08AF834
:101270000346002B01D000F07DF8184801F0CFFEA6
:101280000346002B01D000F075F800233B620023D9
:101290007B6207F120031946104802F0D1FB034698
:1012A000002B01D000F066F860237B600A23BB604E
:1012B0000023FB6000237B613B1D04221946074885
:1012C00001F0A2FF0346002B01D000F053F80348C1
:1012D00000F0E0F800BF3837BD4680BDE0000020D8
:1012E00080B483B000AF084B9B69074A43F0040306
:1012F0009361054B9B6903F004037B607B6800BF2F
:101300000C37BD4680BC70470010024080B485B0E9
:1013100000AF0346FB710A4BDB680133FA7902FB2D
:1013200003F3084AA2FB03235B09FB81044B1B6800
:10133000FA899A6300BF1437BD4680BC704700BF6E
:10134000E00000201F85EB5180B584B000AF7860CD
:1013500001F056FCF8607B68642202FB03F3FA6834
:10136000B2FBF3F34FF08042013B936200BF1037B2
:10137000BD4680BD80B400AF72B600BFFEE700007E
:1013800080B485B000AF154B9B69144A43F001034C
:101390009361124B9B6903F00103BB60BB680F4B69
:1013A000DB690E4A43F08053D3610C4BDB6903F0D9
:1013B00080537B607B680A4B5B68FB60FB6823F0B3
:1013C000E063FB60FB6843F00073FB60044AFB686A
:1013D000536000BF1437BD4680BC70470010024008
:1013E0000000014080B588B000AF786007F11003BD
:1013F00000221A605A609A60DA607B681B68144A9F
:10140000934221D1134B9B69124A43F400739361B9
:10141000104B9B6903F40073FB60FB680D4B9B69E9
:101420000C4A43F0040393610A4B9B6903F00403E5
:10143000BB60BB6804233B6103237B6107F110039E
:101440001946054800F076FE00BF2037BD4680BD36
:1014500000240140001002400008014080B485B023
:1014600000AF78607B681B68B3F1804F0BD1084BED
:10147000DB69074A43F00103D361054BDB6903F0E5
:101480000103FB60FB6800BF1437BD4680BC70479A
:101490000010024080B588B000AF786007F11003FB
:1014A00000221A605A609A60DA607B681B68B3F1A8
:1014B000804F17D10D4B9B690C4A43F00403936195
:1014C0000A4B9B6903F00403FB60FB6802233B614A
:1014D00002237B610223FB6107F1100319460448D4
:1014E00000F028FE00BF2037BD4680BD001002403E
:1014F0000008014080B400AFFEE780B400AFFEE713
:1015000080B400AFFEE780B400AFFEE780B400AF68
:10151000FEE780B400AF00BFBD4680BC704780B41A
:1015200000AF00BFBD4680BC704780B400AF00BFB5
:10153000BD4680BC704780B500AF00F0ABF800BF7F
:1015400080BD000080B586B000AF7860144A154BAE
:10155000D31A7B617B693B61134B1B68002B02D163
:10156000114B124A1A60104B1A687B6813443A698F
:101570009A4207D202F0BCFA03460C221A604FF0DE
:10158000FF3309E0084B1B68FB60074B1A687B6858
:101590001344054A1360FB6818461837BD4680BDE2
:1015A0000028002000040000A400002040010020CA
:1015B00080B400AF00BFBD4680BC70470C480D49E9
:1015C0000D4A002302E0D458C4500433C4188C429E
:1015D000F9D30A4A0A4C002301E013600432A24204
:1015E000FBD3FFF7E5FF02F089FAFFF70DFD704727
:1015F00000000020880000207844000888000020B7
:101600003C010020FEE7000080B500AF084B1B68DE
:10161000074A43F010031360032000F057FD0F202A
:1016200000F008F8FFF7ACFE0023184680BD00BFAD
:101630000020024080B582B000AF7860124B1A687B
:10164000124B1B7819464FF47A73B3FBF1F3B2FBDC
:10165000F3F3184600F061FD0346002B01D001238F
:101660000EE07B680F2B0AD8002279684FF0FF301C
:1016700000F037FD064A7B681360002300E0012379
:1016800018460837BD4680BD180000202000002005
:101690001C00002080B400AF054B1B781A46054B98
:1016A0001B681344034A136000BFBD4680BC7047EB
:1016B000200000202801002080B400AF024B1B68EE
:1016C0001846BD4680BC70472801002080B584B014
:1016D00000AF7860FFF7F0FFB8607B68FB60FB68E5
:1016E000B3F1FF3F05D00A4B1B781A46FB68134441
:1016F000FB6000BFFFF7E0FF0246BB68D31AFA6841
:101700009A42F7D800BF00BF1037BD4680BD00BF6A
:101710002000002080B586B000AF78600023FB7504
:1017200000233B610023BB600023FB607B68002B30
:1017300001D10123BEE07B689B68002B7B689B6A1C
:10174000002B09D17B680022DA627B68002283F8D3
:1017500024207868FFF746FE786800F0C5FB034652
:10176000FB757B689B6A03F01003002B40F09980A7
:10177000FB7D002B40F095807B689B6A23F48853A7
:1017800023F0020343F002027B689A627B685A6886
:101790007B68DB691A437B681B7B5B001343BA6879
:1017A0001343BB607B689B68B3F5807F03D07B6885
:1017B0009B68012B02D14FF4807300E000233A694B
:1017C00013433B617B681B7D012B19D17B681B7B1D
:1017D000002B09D17B689B69013B5A033B6913438A
:1017E00043F400633B610BE07B689B6A43F020029B
:1017F0007B689A627B68DB6A43F001027B68DA628D
:101800007B681B685B6823F469417B681B683A69E5
:101810000A435A607B681B689A68284B13407A68B1
:101820001268B9680B4393607B689B68B3F5807F4F
:1018300003D07B689B68012B04D17B681B69013B4B
:101840001B05FB607B681B68DB6A23F470017B6807
:101850001B68FA680A43DA627B681B689A68184B4F
:101860001340BA689A420BD17B680022DA627B6827
:101870009B6A23F0030343F001027B689A6218E03D
:101880007B689B6A23F0120343F010027B689A6224
:101890007B68DB6A43F001027B68DA620123FB7537
:1018A00007E07B689B6A43F010027B689A62012321
:1018B000FB75FB7D18461837BD4680BDFDF7E1FF7F
:1018C000FE0E1FFF80B584B000AF78600023FB736D
:1018D0007B6893F82430012B01D1022398E07B68C8
:1018E000012283F82420786800F0A4FA0346FB73F1
:1018F000FB7B002B40F087807B689B6A23F440735E
:1019000023F0010343F480727B689A627B681B6852
:10191000414A934205D1414B5B6803F47023002B8D
:1019200015D17B689B6A23F480127B689A627B687E
:101930001B685B6803F48063002B26D07B689B6A7E
:1019400023F4405343F480527B689A621DE07B6825
:101950009B6A43F480127B689A627B681B682F4AFB
:10196000934204D07B681B682B4A93420DD12B4BCA
:101970005B6803F48063002B07D07B689B6A23F4C9
:10198000405343F480527B689A627B689B6A03F4FD
:101990008053002B06D07B68DB6A23F006027B684D
:1019A000DA6202E07B680022DA627B68002283F858
:1019B00024207B681B686FF002021A607B681B683A
:1019C0009B6803F46023B3F5602F13D17B681B6819
:1019D000114A934205D1114B5B6803F47023002B2D
:1019E00008D17B681B689A687B681B6842F4A00278
:1019F0009A600CE07B681B689A687B681B6842F4FD
:101A000080129A6003E07B68002283F82420FB7B2D
:101A100018461037BD4680BD002801400024014013
:101A200090B587B000AF7860396000237B610023F8
:101A3000FB6000233B61FFF73FFE78617B681B681A
:101A40009B6803F48073002B0BD07B689B6A43F088
:101A500020027B689A627B68002283F8242001239D
:101A6000D3E07B681B685B6803F48073002B31D183
:101A70007B681B68DB6A03F47003002B2AD121E02A
:101A80003B68B3F1FF3F1DD03B68002B07D0FFF749
:101A900013FE02467B69D31A3A689A4212D27B68D7
:101AA0001B681B6803F00203002B0BD17B689B6A49
:101AB00043F004027B689A627B68002283F824204A
:101AC0000323A2E07B681B681B6803F00203002B62
:101AD000D6D070E04F4B1C68022001F08DF9034610
:101AE000B4FBF3F27B681B6819694B4B0B40002B6E
:101AF00018D17B681B68D968484B0B40002B11D16B
:101B00007B681B681969464B0B40002B08D17B682A
:101B10001B68D968434B0B40002B01D1142320E0F4
:101B200029231EE07B681B6819693D4B0B40002B85
:101B300006D17B681B68D9683A4B0B40002B0DD04F
:101B40007B681B681969384B0B40002B08D17B68F8
:101B50001B68D968344B0B40002B01D1542300E0A3
:101B6000FC2302FB03F33B6121E03B68B3F1FF3F41
:101B70001AD03B68002B07D0FFF79EFD02467B6919
:101B8000D31A3A689A420FD2FB683A699A420BD943
:101B90007B689B6A43F004027B689A627B68002240
:101BA00083F82420032330E0FB680133FB60FB68EB
:101BB0003A699A42D9D87B681B686FF012021A60A2
:101BC0007B689B6A43F400727B689A627B681B683F
:101BD0009B6803F46023B3F5602F15D17B681B7BF2
:101BE000002B11D17B689B6A23F480727B689A6218
:101BF0007B689B6A03F48053002B05D17B689B6A4A
:101C000043F001027B689A62002318461C37BD46E8
:101C100090BD00BF1800002024499224244992005E
:101C200092244912922449004992240080B483B03E
:101C300000AF78607B681B68DB6C18460C37BD46CC
:101C400080BC704780B485B000AF786039600023F5
:101C5000FB730023BB607B6893F82430012B01D118
:101C60000223DCE07B68012283F824203B685B6868
:101C7000062B1CD87B681B68596B3B685A68134657
:101C80009B001344053B1F2202FA03F3DB43194078
:101C90003B6818683B685A6813469B001344053B31
:101CA00000FA03F27B681B680A435A633CE03B6816
:101CB0005B680C2B1CD87B681B68196B3B685A68E7
:101CC00013469B001344233B1F2202FA03F3DB431A
:101CD00019403B6818683B685A6813469B001344D8
:101CE000233B00FA03F27B681B680A431A631BE07C
:101CF0007B681B68D96A3B685A6813469B0013448B
:101D0000413B1F2202FA03F3DB4319403B6818688A
:101D10003B685A6813469B001344413B00FA03F2A8
:101D20007B681B680A43DA623B681B68092B1CD975
:101D30007B681B68D9683B681A6813465B001344CC
:101D40001E3B072202FA03F3DB4319403B68986805
:101D50003B681A6813465B0013441E3B00FA03F20B
:101D60007B681B680A43DA6019E07B681B681969A5
:101D70003B681A6813465B001344072202FA03F318
:101D8000DB4319403B6898683B681A6813465B0060
:101D9000134400FA03F27B681B680A431A613B682C
:101DA0001B68102B03D03B681B68112B32D17B685A
:101DB0001B681D4A934225D17B681B689B6803F40E
:101DC0000003002B26D17B681B689A687B681B6820
:101DD00042F400029A603B681B68102B1AD1134B27
:101DE0001B68134AA2FB03239A0C13469B0013445F
:101DF0005B00BB6002E0BB68013BBB60BB68002BC3
:101E0000F9D107E07B689B6A43F020027B689A6205
:101E10000123FB737B68002283F82420FB7B184698
:101E20001437BD4680BC70470024014018000020D4
:101E300083DE1B4380B584B000AF78600023FB6075
:101E40000023BB607B681B689B6803F00103012BC8
:101E500040D07B681B689A687B681B6842F001026F
:101E60009A601F4B1B681F4AA2FB03239B0CBB609D
:101E700002E0BB68013BBB60BB68002BF9D1FFF7F8
:101E80001BFCF8601FE0FFF717FC0246FB68D31A43
:101E9000022B18D97B681B689B6803F00103012B98
:101EA00011D07B689B6A43F010027B689A627B6862
:101EB000DB6A43F001027B68DA627B68002283F808
:101EC0002420012307E07B681B689B6803F0010363
:101ED000012BD8D1002318461037BD4680BD00BF66
:101EE0001800002083DE1B4380B584B000AF78600B
:101EF0000023FB607B681B689B6803F00103012BD8
:101F00002ED17B681B689A687B681B6822F00102EF
:101F10009A60FFF7D1FBF8601BE0FFF7CDFB0246AC
:101F2000FB68D31A022B14D97B681B689B6803F0EB
:101F30000103012B0DD17B689B6A43F010027B6883
:101F40009A627B68DB6A43F001027B68DA620123F4
:101F500007E07B681B689B6803F00103012BDCD062
:101F6000002318461037BD4680BD000080B485B000
:101F700000AF78607B6803F00703FB600C4BDB6805
:101F8000BB60BA684FF6FF031340BB60FB681A02E0
:101F9000BB68134343F0BF6343F40033BB60044AA0
:101FA000BB68D36000BF1437BD4680BC704700BF1C
:101FB00000ED00E080B400AF044BDB681B0A03F0C7
:101FC00007031846BD4680BC704700BF00ED00E027
:101FD00080B483B000AF03463960FB7197F90730D6
:101FE000002B0ADB3B68DAB20C4997F90730120183
:101FF000D2B20B4483F800230AE03B68DAB2084906
:10200000FB7903F00F03043B1201D2B20B441A76A2
:1020100000BF0C37BD4680BC704700BF00E100E048
:1020200000ED00E080B489B000AFF860B9607A607C
:10203000FB6803F00703FB61FB69C3F10703042B93
:1020400028BF0423BB61FB690433062B02D9FB695B
:10205000033B00E000237B614FF0FF32BB6902FAD3
:1020600003F3DA43BB681A407B699A404FF0FF31B3
:102070007B6901FA03F3D9437B680B40134318468D
:102080002437BD4680BC704780B582B000AF786011
:102090007B68013BB3F1807F01D301230FE00A4A43
:1020A0007B68013B53600F214FF0FF30FFF790FF3B
:1020B000054B00229A60044B07221A600023184641
:1020C0000837BD4680BD00BF10E000E080B582B09B
:1020D00000AF78607868FFF749FF00BF0837BD465A
:1020E00080BD80B586B000AF0346B9607A60FB73EF
:1020F00000237B61FFF75EFF78617A68B9687869D1
:10210000FFF790FF024697F90F3011461846FFF788
:102110005FFF00BF1837BD4680BD80B582B000AFFD
:1021200078607868FFF7B0FF034618460837BD4669
:1021300080BD000080B48BB000AF786039600023B0
:102140007B6200233B6248E101227B6A02FA03F3CF
:10215000FB613B681B68FA691340BB61BA69FB69A4
:102160009A4240F037813B685B68A34A93425ED055
:10217000A14A934275D8A14A934258D09F4A9342AC
:102180006FD89F4A934252D09D4A934269D89D4A44
:1021900093424CD09B4A934263D89B4A934246D089
:1021A000994A93425DD8122B2AD8122B59D801A2F2
:1021B00052F823F02F220008092200081B220008F1
:1021C0005D220008632200086322000863220008E1
:1021D00063220008632200086322000863220008CB
:1021E00063220008632200086322000863220008BB
:1021F000632200086322000811220008252200083B
:10220000824A934213D02CE03B68DB683B6229E0B2
:102210003B68DB6804333B6224E03B68DB680833DF
:102220003B621FE03B68DB680C333B621AE03B68B3
:102230009B68002B02D104233B6213E03B689B6840
:10224000012B05D108233B627B68FA691A6109E01A
:1022500008233B627B68FA695A6103E000233B6212
:1022600000E000BFBB69FF2B01D87B6801E07B6801
:1022700004337B61BB69FF2B02D87B6A9B0002E0C1
:102280007B6A083B9B003B617B691A680F213B69B5
:1022900001FA03F3DB431A40396A3B6901FA03F39D
:1022A0001A437B691A603B685B6803F08053002B1C
:1022B00000F09080564B9B69554A43F001039361AF
:1022C000534B9B6903F00103BB60BB68514A7B6AB7
:1022D0009B08023352F82330FB607B6A03F0030350
:1022E0009B000F2202FA03F3DB43FA681340FB6002
:1022F0007B68494A93420DD07B68484A934207D095
:102300007B68474A934201D1022304E0032302E0A1
:10231000012300E000237A6A02F003029200934056
:10232000FA681343FB603B497B6A9B080233FA68F7
:1023300041F823203B685B6803F48033002B06D010
:10234000384B1A683749BB6913430B6006E0354BBD
:102350001A68BB69DB43334913400B603B685B6819
:1023600003F40033002B06D02E4B5A682D49BB696D
:1023700013434B6006E02B4B5A68BB69DB4329498A
:1023800013404B603B685B6803F48013002B06D05E
:10239000244B9A682349BB6913438B6006E0214BA9
:1023A0009A68BB69DB431F4913408B603B685B68DD
:1023B00003F40013002B06D01A4BDA681949BB69E5
:1023C0001343CB6006E0174BDA68BB69DB43154962
:1023D0001340CB607B6A01337B623B681A687B6A7F
:1023E00022FA03F3002B7FF4AFAE00BF00BF2C37FF
:1023F000BD4680BC704700BF0000321000003110A5
:102400000000221000002110000012100000111026
:10241000001002400000014000080140000C014093
:10242000001001400004014080B483B000AF786028
:102430000B467B8013467B707B78002B03D07A8819
:102440007B681A6103E07B881A047B681A6100BF0D
:102450000C37BD4680BC704780B586B000AF786051
:102460007B68002B01D101236CE27B681B6803F0C1
:102470000103002B00F08780924B5B6803F00C0394
:10248000042B0CD08F4B5B6803F00C03082B12D18C
:102490008C4B5B6803F48033B3F5803F0BD1894BE1
:1024A0001B6803F40033002B6CD07B685B68002B47
:1024B00068D1012346E27B685B68B3F5803F06D1B3
:1024C000804B1B687F4A43F4803313602EE07B68A7
:1024D0005B68002B0CD17B4B1B687A4A23F480335A
:1024E0001360784B1B68774A23F4802313601DE048
:1024F0007B685B68B3F5A02F0CD1724B1B68714AE7
:1025000043F4802313606F4B1B686E4A43F480339F
:1025100013600BE06B4B1B686A4A23F48033136033
:10252000684B1B68674A23F4802313607B685B68F1
:10253000002B13D0FFF7C0F8386108E0FFF7BCF8B4
:1025400002463B69D31A642B01D90323FAE15D4BA0
:102550001B6803F40033002BF0D014E0FFF7ACF855
:10256000386108E0FFF7A8F802463B69D31A642BEC
:1025700001D90323E6E1534B1B6803F40033002B1E
:10258000F0D100E000BF7B681B6803F00203002B62
:1025900063D04C4B5B6803F00C03002B0BD0494B12
:1025A0005B6803F00C03082B1CD1464B5B6803F4FB
:1025B0008033002B16D1434B1B6803F00203002B22
:1025C00005D07B681B69012B01D00123BAE13D4B8B
:1025D0001B6823F0F8027B685B69DB003949134311
:1025E0000B603AE07B681B69002B20D0364B012240
:1025F0001A60FFF761F8386108E0FFF75DF80246FE
:102600003B69D31A022B01D903239BE12D4B1B6895
:1026100003F00203002BF0D02A4B1B6823F0F802D2
:102620007B685B69DB00274913430B6015E0264B91
:1026300000221A60FFF740F8386108E0FFF73CF825
:1026400002463B69D31A022B01D903237AE11D4BC1
:102650001B6803F00203002BF0D17B681B6803F0BA
:102660000803002B3AD07B689B69002B19D0174BCD
:1026700001221A60FFF720F8386108E0FFF71CF824
:1026800002463B69D31A022B01D903235AE10D4BB1
:102690005B6A03F00203002BF0D0012000F0D8FAAF
:1026A0001CE00A4B00221A60FFF706F838610FE0C1
:1026B000FFF702F802463B69D31A022B08D903231D
:1026C00040E100BF0010024000004242800442424C
:1026D0009E4B5B6A03F00203002BE9D17B681B6809
:1026E00003F00403002B00F0A6800023FB75974B3A
:1026F000DB6903F08053002B0DD1944BDB69934AC7
:1027000043F08053D361914BDB6903F08053BB608E
:10271000BB680123FB758E4B1B6803F48073002B91
:1027200018D18B4B1B688A4A43F480731360FEF701
:10273000C3FF386108E0FEF7BFFF02463B69D31ACA
:10274000642B01D90323FDE0814B1B6803F48073E4
:10275000002BF0D07B68DB68012B06D17B4B1B6A1A
:102760007A4A43F0010313622DE07B68DB68002B9B
:102770000CD1764B1B6A754A23F001031362734B2D
:102780001B6A724A23F0040313621CE07B68DB6857
:10279000052B0CD16D4B1B6A6C4A43F0040313628A
:1027A0006A4B1B6A694A43F0010313620BE0674BF3
:1027B0001B6A664A23F001031362644B1B6A634A77
:1027C00023F0040313627B68DB68002B15D0FEF74F
:1027D00073FF38610AE0FEF76FFF02463B69D31AC8
:1027E00041F28832934201D90323ABE0574B1B6A75
:1027F00003F00203002BEED014E0FEF75DFF38611A
:102800000AE0FEF759FF02463B69D31A41F28832CB
:10281000934201D9032395E04C4B1B6A03F002035A
:10282000002BEED1FB7D012B05D1484BDB69474ADC
:1028300023F08053D3617B68DB69002B00F081803B
:10284000424B5B6803F00C03082B61D07B68DB69AB
:10285000022B46D13F4B00221A60FEF72DFF386154
:1028600008E0FEF729FF02463B69D31A022B01D983
:10287000032367E0354B1B6803F00073002BF0D196
:102880007B681B6AB3F5803F08D1304B5B6823F44B
:1028900000327B689B682D4913434B602B4B5B6870
:1028A00023F474127B68196A7B685B6A0B432749BF
:1028B00013434B60274B01221A60FEF7FDFE38617F
:1028C00008E0FEF7F9FE02463B69D31A022B01D954
:1028D000032337E01D4B1B6803F00073002BF0D07F
:1028E0002FE01C4B00221A60FEF7E6FE386108E07C
:1028F000FEF7E2FE02463B69D31A022B01D90323FD
:1029000020E0124B1B6803F00073002BF0D118E09D
:102910007B68DB69012B01D1012313E00B4B5B6862
:10292000FB60FB6803F480327B681B6A9A4206D125
:10293000FB6803F470127B685B6A9A4201D0012342
:1029400000E0002318461837BD4680BD0010024045
:10295000007000406000424280B584B000AF7860F3
:1029600039607B68002B01D10123D0E06A4B1B68E2
:1029700003F007033A689A4210D9674B1B6823F0AB
:10298000070265493B6813430B60634B1B6803F008
:1029900007033A689A4201D00123B8E07B681B68BC
:1029A00003F00203002B20D07B681B6803F00403B4
:1029B000002B05D0594B5B68584A43F4E0635360E1
:1029C0007B681B6803F00803002B05D0534B5B6842
:1029D000524A43F460535360504B5B6823F0F0025B
:1029E0007B689B684D4913434B607B681B6803F011
:1029F0000103002B40D07B685B68012B07D1474B5C
:102A00001B6803F40033002B15D101237FE07B68A2
:102A10005B68022B07D1414B1B6803F00073002B4E
:102A200009D1012373E03D4B1B6803F00203002B27
:102A300001D101236BE0394B5B6823F003027B6813
:102A40005B68364913434B60FEF736FEF8600AE0D8
:102A5000FEF732FE0246FB68D31A41F288329342F7
:102A600001D9032353E02D4B5B6803F00C027B6814
:102A70005B689B009A42EBD1274B1B6803F007036E
:102A80003A689A4210D2244B1B6823F0070222496D
:102A90003B6813430B60204B1B6803F007033A6845
:102AA0009A4201D0012332E07B681B6803F00403E3
:102AB000002B08D0194B5B6823F4E0627B68DB686D
:102AC000164913434B607B681B6803F00803002B17
:102AD00009D0124B5B6823F460527B681B69DB00F2
:102AE0000E4913434B6000F021F802460B4B5B6824
:102AF0001B0903F00F030A49CB5C22FA03F3094ACE
:102B00001360094B1B681846FEF794FD0023184616
:102B10001037BD4680BD00BF0020024000100240BB
:102B200024440008180000201C00002090B48AB043
:102B300000AF2A4B3C1D0FCB84E80F0040F201236D
:102B40003B800023FB610023BB6100237B620023E9
:102B50007B6100233B62224B5B68FB61FB6903F0F6
:102B60000C03042B02D0082B03D02DE01D4B3B623D
:102B70002DE0FB699B0C03F00F0307F128021344BF
:102B800013F8243C7B61FB6903F48033002B13D0E2
:102B9000134B5B685B0C03F0010307F1280213443D
:102BA00013F8283CBB617B690E4A02FB03F2BB6948
:102BB000B2FBF3F37B6204E07B690B4A02FB03F395
:102BC0007B627B6A3B6202E0064B3B6200BF3B6A72
:102BD00018462837BD4690BC704700BF0444000823
:102BE0000010024000127A0000093D0080B400AFDE
:102BF000024B1B681846BD4680BC70471800002079
:102C000080B500AFFFF7F2FF0246054B5B681B0A79
:102C100003F007030349CB5C22FA03F3184680BD97
:102C2000001002403444000880B500AFFFF7DEFF1B
:102C30000246054B5B68DB0A03F007030349CB5CE4
:102C400022FA03F3184680BD001002403444000805
:102C500080B485B000AF78600A4B1B680A4AA2FBBB
:102C600003235B0A7A6802FB03F3FB6000BFFB6887
:102C70005A1EFA60002BF9D100BF00BF1437BD46C1
:102C800080BC704718000020D34D621080B586B01C
:102C900000AF786000233B610023FB607B681B680A
:102CA00003F00103002B7DD00023FB754F4BDB6944
:102CB00003F08053002B0DD14C4BDB694B4A43F0A2
:102CC0008053D361494BDB6903F08053BB60BB6821
:102CD0000123FB75464B1B6803F48073002B18D14E
:102CE000434B1B68424A43F480731360FEF7E4FCD5
:102CF000386108E0FEF7E0FC02463B69D31A642B1A
:102D000001D903236DE03A4B1B6803F48073002B59
:102D1000F0D0364B1B6A03F44073FB60FB68002B5A
:102D20002ED07B685B6803F44073FA689A4227D020
:102D30002E4B1B6A23F44073FB602E4B01221A605A
:102D40002C4B00221A60294AFB681362FB6803F0CF
:102D50000103002B14D0FEF7AFFC38610AE0FEF748
:102D6000ABFC02463B69D31A41F28832934201D947
:102D7000032336E01D4B1B6A03F00203002BEED049
:102D80001A4B1B6A23F440727B685B681749134334
:102D90000B62FB7D012B05D1144BDB69134A23F039
:102DA0008053D3617B681B6803F00203002B08D0BB
:102DB0000E4B5B6823F440427B689B680B491343CE
:102DC0004B607B681B6803F01003002B08D0074B97
:102DD0005B6823F480027B68DB68044913434B6023
:102DE000002318461837BD4680BD00BF00100240C2
:102DF000007000404004424290B58DB000AF786052
:102E00005A4B07F10C040FCB84E80F0040F201236A
:102E10003B8100237B620023FB6200233B62002393
:102E2000FB610023BB627B68102B0AD07B68102BF0
:102E300000F291807B68012B4CD07B68022B7CD008
:102E400089E04B4B5B68FB61494B1B6803F0807367
:102E5000002B00F08280FB699B0C03F00F0307F14D
:102E60003002134413F8243C3B62FB6903F48033C3
:102E7000002B18D03E4B5B685B0C03F0010307F19D
:102E80003002134413F8283C7B62FB6903F480335F
:102E9000002B0DD0374A7B6AB2FBF3F23B6A02FB90
:102EA00003F3FB6204E03B6A334A02FB03F3FB6279
:102EB0002F4B5B6803F48003B3F5800F02D1FB6AEC
:102EC000BB624AE0FB6A5B002C4AA2FB03235B085F
:102ED000BB6242E0264B1B6AFB61FB6903F4407353
:102EE000B3F5807F08D1FB6903F00203002B03D008
:102EF0004FF40043BB621FE0FB6903F44073B3F57A
:102F0000007F09D11A4B5B6A03F00203002B03D048
:102F100049F64043BB620FE0FB6903F44073B3F52D
:102F2000407F1CD1124B1B6803F40033002B16D0DA
:102F30004FF22443BB6212E011E0FFF775FE024638
:102F40000B4B5B689B0B03F0030301335B00B2FB8D
:102F5000F3F3BB6204E000BF02E000BF00E000BF8B
:102F6000BB6A18463437BD4690BD00BF1444000804
:102F70000010024000127A0000093D00ABAAAAAA84
:102F800080B582B000AF78607B68002B01D101234F
:102F900041E07B6893F83D30DBB2002B06D17B68C3
:102FA000002283F83C207868FEF758FA7B680222FA
:102FB00083F83D207B681A687B6804331946104605
:102FC00000F0A4FA7B68012283F846207B68012286
:102FD00083F83E207B68012283F83F207B68012232
:102FE00083F840207B68012283F841207B6801221E
:102FF00083F842207B68012283F843207B6801220A
:1030000083F844207B68012283F845207B680122F5
:1030100083F83D20002318460837BD4680BD80B5A3
:1030200082B000AF78607B68002B01D1012341E0C2
:103030007B6893F83D30DBB2002B06D17B68002221
:1030400083F83C20786800F039F87B68022283F826
:103050003D207B681A687B6804331946104600F0EF
:1030600055FA7B68012283F846207B68012283F8A9
:103070003E207B68012283F83F207B68012283F891
:1030800040207B68012283F841207B68012283F87D
:1030900042207B68012283F843207B68012283F869
:1030A00044207B68012283F845207B68012283F855
:1030B0003D20002318460837BD4680BD80B483B04C
:1030C00000AF786000BF0C37BD4680BC7047000081
:1030D00080B584B000AF786039603B68002B09D1BF
:1030E0007B6893F83E30DBB2012B14BF0123002331
:1030F000DBB222E03B68042B09D17B6893F83F30B8
:10310000DBB2012B14BF01230023DBB215E03B68C7
:10311000082B09D17B6893F84030DBB2012B14BF38
:1031200001230023DBB208E07B6893F84130DBB277
:10313000012B14BF01230023DBB2002B01D001239C
:1031400059E03B68002B04D17B68022283F83E20C3
:1031500013E03B68042B04D17B68022283F83F20F4
:103160000BE03B68082B04D17B68022283F84020E7
:1031700003E07B68022283F841207B681B68012200
:103180003968184600F038FC7B681B681C4A93427B
:1031900007D17B681B685A6C7B681B6842F400424D
:1031A0005A647B681B68164A934209D07B681B6887
:1031B000B3F1804F04D07B681B68124A934211D14F
:1031C0007B681B689B6803F00703FB60FB68062BAA
:1031D00010D07B681B681A687B681B6842F001028C
:1031E0001A6007E07B681B681A687B681B6842F0FE
:1031F00001021A60002318461037BD4680BD00BF8B
:10320000002C01400004004080B584B000AFF8609D
:10321000B9607A60FB6893F83C30012B01D102233E
:10322000ACE0FB68012283F83C207B680C2B00F2A9
:103230009F8001A252F823F06D320008713300081C
:103240007133000871330008AD3200087133000893
:103250007133000871330008EF3200087133000841
:1032600071330008713300082F330008FB681B68B6
:10327000B968184600F0A2F9FB681B689A69FB68F8
:103280001B6842F008029A61FB681B689A69FB6838
:103290001B6822F004029A61FB681B689969BB688D
:1032A0001A69FB681B680A439A6162E0FB681B6845
:1032B000B968184600F0E8F9FB681B689A69FB6872
:1032C0001B6842F400629A61FB681B689A69FB689C
:1032D0001B6822F480629A61FB681B689969BB686D
:1032E0001B691A02FB681B680A439A6141E0FB688C
:1032F0001B68B968184600F031FAFB681B68DA6988
:10330000FB681B6842F00802DA61FB681B68DA6937
:10331000FB681B6822F00402DA61FB681B68D9694C
:10332000BB681A69FB681B680A43DA6121E0FB6825
:103330001B68B968184600F07BFAFB681B68DA69FD
:10334000FB681B6842F40062DA61FB681B68DA699B
:10335000FB681B6822F48062DA61FB681B68D9692C
:10336000BB681B691A02FB681B680A43DA6100E04C
:1033700000BFFB68002283F83C200023184610376A
:10338000BD4680BD80B584B000AF786039607B6891
:1033900093F83C30012B01D10223B3E07B6801227A
:1033A00083F83C207B68022283F83D207B681B6801
:1033B0009B68FB60FB6823F07703FB60FB6823F4EA
:1033C0007F43FB607B681B68FA689A603B681B68F8
:1033D000B3F5005F3ED0B3F5005F00F28780B3F530
:1033E000805F00F08580B3F5805F7FD8702B1AD0A6
:1033F000702B7BD8602B50D0602B77D8502B3CD0D3
:10340000502B73D8402B58D0402B6FD8302B64D022
:10341000302B6BD8202B60D0202B67D8002B5CD0B2
:10342000102B5AD062E07B6818683B6899683B684B
:103430005A683B68DB6800F0C0FA7B681B689B68D1
:10344000FB60FB6843F07703FB607B681B68FA68EE
:103450009A604EE07B6818683B6899683B685A68D8
:103460003B68DB6800F0A9FA7B681B689A687B6898
:103470001B6842F480429A603BE07B6818683B68B6
:1034800059683B68DB681A4600F020FA7B681B68C5
:103490005021184600F077FA2BE07B6818683B68EB
:1034A00059683B68DB681A4600F03EFA7B681B6887
:1034B0006021184600F067FA1BE07B6818683B68DB
:1034C00059683B68DB681A4600F000FA7B681B68A5
:1034D0004021184600F057FA0BE07B681A683B68F9
:1034E0001B681946104600F04EFA02E000BF00E0EB
:1034F00000BF7B68012283F83D207B68002283F8AF
:103500003C20002318461037BD4680BD80B485B0EE
:1035100000AF786039607B681B68FB607B68254A78
:10352000934207D07B68B3F1804F03D07B68224A77
:10353000934208D1FB6823F07003FB603B685B6833
:10354000FA681343FB607B681A4A934207D07B6892
:10355000B3F1804F03D07B68174A934208D1FB68D0
:1035600023F44073FB603B68DB68FA681343FB603D
:10357000FB6823F080023B685B691343FB607B6858
:10358000FA681A603B689A687B68DA623B681A6876
:103590007B689A627B68074A934203D13B681A6949
:1035A0007B681A637B6801225A6100BF1437BD46ED
:1035B00080BC7047002C01400004004080B487B0FC
:1035C00000AF786039607B681B6A23F001027B687A
:1035D0001A627B681B6A7B617B685B683B617B6806
:1035E0009B69FB60FB6823F07003FB60FB6823F0C2
:1035F0000303FB603B681B68FA681343FB607B694D
:1036000023F002037B613B689B687A6913437B610B
:103610007B681C4A93420CD17B6923F008037B61D1
:103620003B68DB687A6913437B617B6923F00403A1
:103630007B617B68134A934211D13B6923F4807309
:103640003B613B6923F400733B613B685B693A690A
:1036500013433B613B689B693A6913433B617B6859
:103660003A695A607B68FA689A613B685A687B6875
:103670005A637B687A691A6200BF1C37BD4680BCFA
:10368000704700BF002C014080B487B000AF786065
:1036900039607B681B6A23F010027B681A627B68C2
:1036A0001B6A7B617B685B683B617B689B69FB6035
:1036B000FB6823F4E043FB60FB6823F44073FB608A
:1036C0003B681B681B02FA681343FB607B6923F0AD
:1036D00020037B613B689B681B017A6913437B6114
:1036E0007B681D4A93420DD17B6923F080037B6187
:1036F0003B68DB681B017A6913437B617B6923F0BC
:1037000040037B617B68144A934213D13B6923F4E5
:1037100080633B613B6923F400633B613B685B6909
:103720009B003A6913433B613B689B699B003A6984
:1037300013433B617B683A695A607B68FA689A6117
:103740003B685A687B689A637B687A691A6200BF33
:103750001C37BD4680BC7047002C014080B487B048
:1037600000AF786039607B681B6A23F480727B68E5
:103770001A627B681B6A7B617B685B683B617B6864
:10378000DB69FB60FB6823F07003FB60FB6823F0E0
:103790000303FB603B681B68FA681343FB607B69AB
:1037A00023F400737B613B689B681B027A691343B7
:1037B0007B617B681D4A93420DD17B6923F40063D2
:1037C0007B613B68DB681B027A6913437B617B6921
:1037D00023F480637B617B68144A934213D13B6975
:1037E00023F480533B613B6923F400533B613B6806
:1037F0005B691B013A6913433B613B689B691B0191
:103800003A6913433B617B683A695A607B68FA689E
:10381000DA613B685A687B68DA637B687A691A62A6
:1038200000BF1C37BD4680BC704700BF002C014064
:1038300080B487B000AF786039607B681B6A23F47E
:1038400080527B681A627B681B6A3B617B685B689D
:103850007B617B68DB69FB60FB6823F4E043FB6012
:10386000FB6823F44073FB603B681B681B02FA682B
:103870001343FB603B6923F400533B613B689B6847
:103880001B033A6913433B617B680F4A934209D19A
:103890007B6923F480437B613B685B699B017A69A8
:1038A00013437B617B687A695A607B68FA68DA61E6
:1038B0003B685A687B681A647B683A691A6200BF81
:1038C0001C37BD4680BC7047002C014080B487B0D7
:1038D00000AFF860B9607A60FB681B6A7B61FB68C7
:1038E0001B6A23F00102FB681A62FB689B693B615B
:1038F0003B6923F0F0033B617B681B013A6913438A
:103900003B617B6923F00A037B617A69BB681343DF
:103910007B61FB683A699A61FB687A691A6200BF49
:103920001C37BD4680BC704780B487B000AFF860DC
:10393000B9607A60FB681B6A23F01002FB681A62A8
:10394000FB689B697B61FB681B6A3B617B6923F4B5
:1039500070437B617B681B037A6913437B613B691E
:1039600023F0A0033B61BB681B013A6913433B6131
:10397000FB687A699A61FB683A691A6200BF1C3772
:10398000BD4680BC704780B485B000AF78603960B8
:103990007B689B68FB60FB6823F07003FB603A6800
:1039A000FB68134343F00703FB607B68FA689A6087
:1039B00000BF1437BD4680BC704780B487B000AFED
:1039C000F860B9607A603B60FB689B687B617B69EB
:1039D00023F47F437B613B681A027B681A43BB6810
:1039E00013437A6913437B61FB687A699A6000BF6D
:1039F0001C37BD4680BC704780B487B000AFF8600C
:103A0000B9607A60BB6803F01F03012202FA03F376
:103A10007B61FB681A6A7B69DB431A40FB681A62A8
:103A2000FB681A6ABB6803F01F03796801FA03F3A5
:103A30001A43FB681A6200BF1C37BD4680BC704742
:103A400080B485B000AF786039607B6893F83C3013
:103A5000012B01D1022341E07B68012283F83C2045
:103A60007B68022283F83D207B681B685B68FB60F3
:103A70007B681B689B68BB60FB6823F07003FB607E
:103A80003B681B68FA681343FB607B681B68FA6835
:103A90005A607B681B68144A934209D07B681B6894
:103AA000B3F1804F04D07B681B68104A93420CD15D
:103AB000BB6823F08003BB603B685B68BA68134354
:103AC000BB607B681B68BA689A607B68012283F8D8
:103AD0003D207B68002283F83C20002318461437E1
:103AE000BD4680BC704700BF002C01400004004070
:103AF000014B1868704700BF2400002070B50026F5
:103B00000C4D0D4C641BA410A64209D100F05CFCC6
:103B100000260A4D0A4C641BA410A64205D170BDB4
:103B200055F8043B98470136EEE755F8043B9847B3
:103B30000136F2E770440008704400087044000841
:103B40007444000803460244934200D1704703F8CE
:103B5000011BF9E70EB46FF0004100B59CB01DAB3E
:103B600002900690079104910848094953F8042BE4
:103B70000591006802A9019300F068F80022029BF9
:103B80001A701CB05DF804EB03B0704724000020ED
:103B90000802FFFF2DE9F0478E6882469E420C46E0
:103BA00090461F4638D88A8912F4906F32D0256823
:103BB00009690133A5EB010965694B4405EB45052E
:103BC00005EBD5756D109D4238BF1D46530531D5A7
:103BD000294600F053FB064650B90C234FF0FF3046
:103BE000CAF80030A38943F04003A381BDE8F08701
:103BF0004A46216900F0CEFAA38923F4906343F08A
:103C00008003A38126614E4426603E466561A5EB94
:103C10000905A560BE4200D93E46324641462068AD
:103C200000F0C6FAA36822689B1B32440020A36000
:103C30002260DBE72A4600F07BFB06460028E1D144
:103C40005046216900F0CEFAC7E700002DE9F04F99
:103C500098468B8907461B060D4614469DB00ED527
:103C60000B6963B9402100F009FB2860286120B985
:103C70000C233B604FF0FF30D1E040236B61002309
:103C8000099320238DF8293030234FF00109CDF816
:103C90000C80DFF8A4818DF82A3023469A4613F869
:103CA000012B0AB1252AF9D1BAEB040B0BD05B46E4
:103CB000224629463846FFF76DFF013000F0AA8002
:103CC000099A5A4409929AF80030002B00F0A28019
:103CD00000234FF0FF32CDE905230AF1010A0493D6
:103CE00007938DF853301A935446052214F8011B9C
:103CF000514800F041FA049AD8B9D00644BF2023B5
:103D00008DF85330110744BF2B238DF853309AF8A8
:103D100000302A2B15D0544600204FF00A0C079A89
:103D2000214611F8013B303B092B4ED9B0B1079227
:103D300014E0A0EB080309FA03F31343A24604932B
:103D4000D2E7039B191D1B680391002BBBBF5B428D
:103D500042F0020207930793B8BF049223782E2BF8
:103D60000CD163782A2B35D1039B02341A1D1B68B2
:103D70000392002BB8BF4FF0FF330593DFF8C8A0C4
:103D800003225046217800F0F7F940B14023A0EB20
:103D90000A0003FA00F0049B01340343049314F86F
:103DA000011B062225488DF8281000F0E5F90028AF
:103DB00038D0234B1BBB039B073323F00703083387
:103DC0000393099B3344099367E70C4601200CFBDE
:103DD0000232A5E700234FF00A0C1946013405937F
:103DE000204610F8012B303A092A03D9002BC5D000
:103DF0000591C3E7044601230CFB0121F0E703AB67
:103E000000932A4638460F4B04A9AFF30080421CAA
:103E10000646D6D1AB895B063FF52CAF09981DB09D
:103E2000BDE8F08F03AB00932A463846054B04A942
:103E300000F07CF8EBE700BF3C4400084644000873
:103E400000000000953B0008424400082DE9F047BF
:103E5000164699468A680B6907469342B8BF1346CF
:103E6000336091F843200C46DDF820800AB101331D
:103E700033602368990642BF336802333360256894
:103E800015F0060506D104F1190AE36832689B1A99
:103E9000AB4228DC94F84320131E226818BF01238C
:103EA00092062DD44946384604F14302C0470130FA
:103EB00020D02368E56803F00603042B18BF002513
:103EC00032684FF00006A36808BFAD1A226908BF28
:103ED00025EAE5759342C4BF9B1AED181A34B54222
:103EE0001AD1002008E00123524649463846C0470F
:103EF000013003D14FF0FF30BDE8F0870135C4E752
:103F00003020E11881F843005A1C94F845102244EF
:103F1000023382F84310C5E701232246494638465A
:103F2000C0470130E6D00136D9E700002DE9FF4750
:103F30000C46277E9146782F80469A460C9904F1CC
:103F4000430207D8622F0AD8002F00F0D980582FDB
:103F500000F0A48004F1420684F842703AE0A7F130
:103F60006303152BF6D801A050F823F0C53F0008D5
:103F7000D93F0008553F0008553F0008553F00084D
:103F8000553F0008D93F0008553F0008553F00083D
:103F9000553F0008553F0008E74000080940000869
:103FA000C9400008553F0008553F00080941000876
:103FB000553F000809400008553F0008553F0008DC
:103FC000D14000080B6804F142061A1D1B680A6004
:103FD00084F842300123A4E0256808682E0600F129
:103FE00004030AD505680B60002D03DA2D236D420A
:103FF00084F843300A235E4819E015F0400F056845
:104000000B6018BF2DB2EFE70B682568181D08601C
:10401000280601D51D6802E06906FBD51D886F2FB3
:104020000CBF08230A235248002184F84310666815
:10403000002EA8BF2168A660A4BF21F00401216062
:104040000DB9002E4DD01646B5FBF3F103FB115709
:10405000C75D06F8017D2F46BB420D46F4D9082BFB
:104060000BD12368DF0708D5236961689942DEBF59
:10407000302306F8013C06F1FF36921B22614B46C5
:1040800021464046CDF800A003AAFFF7DFFE01302D
:104090004CD14FF0FF3004B0BDE8F087344884F8CD
:1040A00045700E68236856F8045B1F060E6014D531
:1040B000D90744BF43F0200323601DB9236823F0D0
:1040C000200323601023AFE7236843F0200323601D
:1040D0007823284884F84530E3E75E0648BFADB250
:1040E000E6E71646BBE70B6826681D1D60690D6094
:1040F00035061B6801D5186002E07106FBD51880F3
:10410000002316462361BAE70B681A1D0A601E6871
:1041100000213046626800F02FF808B1801B606013
:1041200063682361002384F84330A8E73246494698
:1041300040462369D0470130ABD023689B0713D496
:10414000E068039B9842B8BF1846A4E701233246B3
:1041500049464046D04701309BD00135E36803997A
:104160005B1AAB42F2DCEBE7002504F11906F5E738
:104170004D4400085E440008034610B5C9B202442D
:104180009342184601D1002003E0047801338C42A9
:10419000F6D110BD0A44914200F1FF3300D17047BF
:1041A00010B511F8014B914203F8014FF9D110BD40
:1041B000884210B501EB020402D98442234607D895
:1041C000431EA14208D011F8012B03F8012FF8E794
:1041D000014602448A4200D110BD13F8014D02F895
:1041E000014DF7E738B50546002943D051F8043CA6
:1041F0000C1F002BB8BFE41800F0D0F81E4A13685B
:10420000104633B9636014602846BDE8384000F0BA
:10421000CBB8A3420AD921686218934201BF1A6839
:104220005B685218226063600460EDE71A465B68C1
:104230000BB1A342FAD911685018A0420BD12068E3
:104240000144501883421160DED118685B68014454
:1042500011605360D8E702D90C232B60D4E72068A3
:1042600021188B4201BF19685B68091821606360DF
:104270005460C9E738BD00BFA8000020F8B5CD1CC8
:1042800025F0030508350C2D38BF0C25002D0646FA
:1042900001DBA94203D90C2333600020F8BD00F0F4
:1042A0007DF821490A6814469CB9204F3B6823B920
:1042B0002146304600F062F838602946304600F06A
:1042C0005DF8431C23D10C233046336000F06CF8BA
:1042D000E3E723685B1B17D40B2B03D923601C4433
:1042E000256004E06368A2420CBF0B605360304657
:1042F00000F05AF804F10B00231D20F00700C21A49
:10430000CCD01B1AA350C9E722466468CCE7C41C72
:1043100024F00304A042E3D0211A304600F02EF826
:104320000130DDD1CFE700BFA8000020AC000020A5
:10433000F8B5074614460E4621B91146BDE8F840C7
:10434000FFF79CBF22B9FFF74DFF25462846F8BD71
:1043500000F030F8A0420FD221463846FFF78EFF1A
:1043600005460028F2D031462246FFF713FF3146BA
:104370003846FFF737FFE9E73546E7E738B500236A
:10438000054D044608462B60FDF7DCF8431C02D1BE
:104390002B6803B1236038BD2C010020014800F0D8
:1043A00011B800BF34010020014800F00CB800BF74
:1043B0003401002051F8043C181F002BBCBF0B58DF
:1043C000C018704770477047F8B500BFF8BC08BC0C
:1043D0009E467047F8B500BFF8BC08BC9E467047C3
:1043E0002564000054656D70203A000020202020D4
:1043F000202000004300000053706565643A00000F
:1044000072706D0002030405060708090A0B0C0D03
:104410000E0F101002030405060708090A0B0C0D05
:104420000E0F101000000000000000000102030445
:10443000060708090000000001020304232D302BA9
:104440002000686C4C006566674546470030313295
:1044500033343536373839414243444546003031EC
:10446000323334353637383961626364656600004B
:04447000350100080A
:04447400110100082A
:10447800000C0140000C0140000C0140000C014000
:1044880000100020004000800024F400100000000C
:1044980001000000280000200000000000000000CB
:1044A8000000000000000000000000000000000004
:1044B80000000000000000000000000000000000F4
:1044C80000000000000000000000000000000000E4
:1044D80000000000000000000000000000000000D4
:1044E80000000000000000000000000000000000C4
:0844F8000000000000000000BC
:04000005080015BD1D
:00000001FF
